:10000000E0540020916F00008D6F00008D6F0000A4
:1000100000000000000000000000000000000000E0
:100020000000000000000000000000008D6F0000D4
:1000300000000000000000008D6F00008D6F0000C8
:100040008D6F00008D6F0000454C000001480000DE
:100050008D6F00008D6F00008D6F00008D6F0000B0
:100060001D5700002D5700003D5700004D57000060
:100070005D5700006D5700008D6F00008D6F000010
:100080008D6F0000616B0000716B00008D6F0000D0
:100090008D6F0000816B00008D6F00008D6F000080
:1000A0008D6F00008D6F0000794700008D6F00009C
:1000B0000000000000000000000000000000000040
:1000C0000000000000000000000000000000000030
:1000D0000000000000000000000000000000000020
:1000E0000000000000000000000000000000000010
:1044000010B5064C2378002B07D1054B002B02D0AA
:10441000044800E000BF0123237010BD8800002085
:104420000000000070850100084B10B5002B03D080
:104430000749084800E000BF07480368002B00D187
:1044400010BD064B002BFBD09847F9E70000000099
:104450008C000020708501007085010000000000C4
:1044600070B50020084B98470500084CFA218900D8
:10447000A047074B186007492800A047064B186063
:104480000522064B1A6070BD91680000DD2E010008
:104490000000002040420F000400002010E000E077
:1044A00030B5084B1C68084A0025802149020138B4
:1044B00007D3002CFBD05460956013680B42FCD0EE
:1044C000F5E730BD0400002010E000E030B5084BF7
:1044D0001C68084A002580214902013807D3002CB6
:1044E000FBD05460956013680B42FCD0F5E730BDFB
:1044F0000000002010E000E00C4B1B68002B06D1F0
:10450000EFF31083002B07D00022094B1A70074AE3
:10451000136801331360704772B6BFF35F8F0022D8
:10452000044B1A700132024B1A70F0E7A40000200D
:10453000A800002008000020084B1A68013A1A6001
:104540001B68002B09D1064B1B78002B05D00122DC
:10455000044B1A70BFF35F8F62B67047A40000204F
:10456000A800002008000020F0B5C64600B582B0C3
:1045700001AC0125657000239846A37025702100C9
:104580001320124EB047124F80231B03BB612570CE
:1045900021001220B0478023DB02BB61257021007F
:1045A0000D20B04780239B017B61257021000920ED
:1045B000B04780239B007B614346237065702100D8
:1045C0001C20B04702B004BC9046F0BDA94B0000CF
:1045D0000028004001230370002343708370C370E0
:1045E00003710F2242718371C371037270470268B5
:1045F000136802210B431360704703230268537151
:104600000268D3710268136802218B4313607047FC
:1046100070B504000D00D3780371216053784371A5
:104620001379837113789B029178C9020B435178F7
:1046300009020B43D17889000B43117949010B43DF
:1046400091798903D07940030143107A0003014333
:1046500052791204F020000302400A4313431E0063
:104660002B689B0701D42E6070BD2000034B984738
:104670002E602000024B9847F6E7C046FB4500003D
:10468000EF45000070B5054CE56980239B012B4385
:10469000E36101230B60024B984770BD00040040AA
:1046A0001146000070B54379012B05D0002B10D0C6
:1046B000022B0DD1082500E00625002310C99A1C05
:1046C00092000668B446624454600133AB42F5D3AD
:1046D00070BD0425F1E7FFFF10B5002302681372D7
:1046E0000F4B426813400F4A93420AD00379032BC1
:1046F0000ED00C001034036804C99A638C42FAD1BE
:1047000010BD03680A689A6303684A689A63F7E70A
:104710008379023B012BECD803680A689A63EFE7C0
:10472000FF00FF0003000100002302681372104B1A
:10473000426813400F4A93420AD00379032B0ED0EC
:104740000A00103203689B6B08C18A42FAD1704795
:1047500003689B6B0B6003689B6B4B60F7E7837987
:10476000023B012BECD803689B6B0B60EFE7C04664
:10477000FF00FF000300010010B50C4BDC79E4B230
:10478000E30707D50A4B1B68002B0DD00121074A10
:10479000D1719847A30707D5054B1B68002B03D0A1
:1047A0000221024AD171984710BDC0460034004230
:1047B000AC0000201723002A01D0180070478B009E
:1047C000064A9B58002B03D0834205D01D23F4E7F3
:1047D000890088500023F0E70023EEE7D01E002078
:1047E0001723002901D01800704700221F2800D885
:1047F000024A0123834013610023F4E700240040B0
:1048000070B50022104B1A70002310491F25104E5E
:104810000D4C0AE00D4908E023780133DBB2237028
:104820000F2B10D800211F2BF4D92800184001228B
:10483000824048691042EFD04A619B009B59002B8F
:10484000EAD09847E8E770BDCC1E00200024004065
:10485000D01E0020064A137802210B43137001205A
:1048600053681942FCD153681842F9D17047C046C9
:1048700000240040064A137802218B431370012064
:1048800053681942FCD153681842F9D17047C046A9
:104890000024004010B5124A516980239B000B434D
:1048A0005361104A137801210B4313700131012029
:1048B00053681942FCD153681842F9D1094A137858
:1048C00010210B431370084B19004031002204C320
:1048D0008B42FCD10822054B1A60054B984710BD4E
:1048E0000004004000240040D01E002000E100E051
:1048F0005548000000230360436001220272837266
:104900000132C27243727047F0B583B005000C00EB
:104910001C4B984701A900234B70CB7023790B7077
:10492000237A8B702078184B984700211F2D00D8D0
:10493000164907222A409200E77AA37A002B01D079
:1049400008231F43EB089B00CB18D8690F2696401D
:10495000B04397403A000243DA61637A002B0BD1EF
:104960008A690123AB40DB431B041B0C13408B61A2
:10497000074B984703B0F0BD8A690123AB4013434E
:104980008B61F5E775480000696A0000002400406B
:104990005548000030B50400254A10885388434329
:1049A0008B420BD280229201224BCB18934205D925
:1049B000214A1820214BCB1893420ED8204B5D681A
:1049C0008022D2022A435A602022FF321A831B7DA2
:1049D000DB0703D41A4B5D60052030BD452C22D87F
:1049E000A300184AD3589F46154B1B8BDB0503D5F4
:1049F000134B5D601020F0E789084900104BD96126
:104A000003E0890849000E4BD961A5200002044348
:104A10000B4B1C80190001220B7D1342FCD0084B6C
:104A20005D600020D9E7064B5D601720D5E7C046E2
:104A3000B400002000C07FFFFF1F00000000C0FF87
:104A40000040004124740100F8B52F4B1C885B889E
:104A50006343834207D22D4E18252D4BC318B34212
:104A600006D8012600E00026631E1825184201D052
:104A70002800F8BD013D9442FAD3264B1B7D123D20
:104A8000DB07F5D5244C234B1C801D0001242B7D16
:104A90002342FCD02024FF341E4B1C83002A2CD040
:104AA000012305009D430023541EA44609E0CF18AE
:104AB0007F783F023C432C8002339BB202359A42FE
:104AC00004D9CC5C6345F2DBA4B2F4E70E4B1B794E
:104AD0000025002BCCD13F2ACAD8002E06D10022B7
:104AE000010004200D4B98470500C1E7002201009A
:104AF0001C200A4B98470500BAE7034B1B79002599
:104B0000002BEAD0B4E7C046B4000020FF1F00002D
:104B10000000C0FF0040004144A5FFFF9549000090
:104B200010B51B4A138852885A43824207D2194C47
:104B3000182219494118A14207D8012100E000219B
:104B40009B00013B1822184201D0100010BD134BEE
:104B50001B7D133ADB07F8D5104B2022FF321A8356
:104B600080084000D86100290FD10D4A0B4B1A80F4
:104B7000190001220B7D1342FCD0084B1A8B1C201C
:104B80000240501E82419200DFE7064AEEE7C0462F
:104B9000B4000020FF1F00000000C0FF00400041E3
:104BA00002A500001AA5000000B583B001AB802269
:104BB0001A700A785A704A789A708A78DA701900EE
:104BC000014B984703B000BD696A0000036818698B
:104BD000431E9841C0B2704770B504000668084D86
:104BE0002000A8470028FBD12379002B04D0002007
:104BF000012B00D1B06970BD308B80B2FBE7C0469D
:104C0000CD4B000010B502680A2910D0072911D930
:104C100080235B000C00083CA340C024A400234078
:104C20001381C38E01228A409343C38610BD044B77
:104C30001381F6E701248C40FF2323401381F0E722
:104C40000080FFFFF8B5DE4657464E464546E0B5C4
:104C50002B4B1B689A461E68DB8E5246928E1A407A
:104C60009046B289738913401AB2002A08DBFF27E5
:104C70001F402AD0002401239946FE339B4614E0AE
:104C800043465B0507D41F4BB3813CBC9046994615
:104C9000A246AB46F8BD53461B6B9847F3E75B460D
:104CA0001D40B5810134082CEFD023004D46A540AE
:104CB0002F42F4D04246224149461142EFD00233FE
:104CC0009B0052469B589847E9E7DA050AD54346C8
:104CD000DB0503D480235B00B381D6E753469B6A90
:104CE0009847F7E79B05D0D543469B0503D480231F
:104CF0009B00B381C9E75346DB6A9847F7E7C04694
:104D0000101F00200080FFFF01680722CB691A42B4
:104D1000FCD17047F0B5D6464F464646C0B58AB07E
:104D200007000E001400396008009C4B98470528C6
:104D300000D12BE105001235994AD1690123834046
:104D40000B43D36109A9237B0B70EDB22800954B6F
:104D500098472800944B9847207B0021934B984715
:104D600033681C209B0705D50AB01CBC90469946A9
:104D7000A246F0BD33681738DB07F5D4142333603F
:104D80003B6898461800854B98470500802308AA81
:104D9000137000235370012208A98A70CB70E06958
:104DA000266A002800D1AEE008AB1870022308AADA
:104DB0005370000CC0B211007D4B9847002E00D1FB
:104DC000A6E008AB1E70022308AA5370360CF0B29E
:104DD0001100774B9847A38AFB80E38A3B81237EAF
:104DE0008022002B04D1734B9B789B07DB0FDA01E9
:104DF000A16823690B4313432422A25C002A02D03A
:104E00008022D2051343A26A13432C22A25C002AFB
:104E100003D180229204914202D1802212051343D1
:104E20002D22A25C002A02D08022120413432E22DB
:104E3000A25C002A02D08022D203134342461268A9
:104E400013434246136080235B0053601235E8B27F
:104E5000594B98470790FA239B0022685A43914682
:104E600063689A46554DA847009001914B465800FB
:104E7000A84702900391208EA84704900591504FB7
:104E8000504A514B00980199B84702000B00049812
:104E90000599B8474D4E00224D4BB04704900591FF
:104EA0004846A84702000B0004980599B84702003D
:104EB0000B00484D00980199A847029A039BB04700
:104EC0000022454BA847029A039B444DA847444BF8
:104ED0009847050080239B04A2689A421ED00300D5
:104EE0004020FF2D00D93FE700240020FF251D4072
:104EF000240625430004FF231B04184005434346B2
:104F0000DD60002030E700214046364B98474BE7F4
:104F100001214046334B9847060052E7FA26B60077
:104F200053465E430098019902000B00274CA047AE
:104F3000009001913000214B984700222A4BB8473E
:104F400002000B0000980199244CA0470022224B3C
:104F5000204CA047224B9847041E0CD031000798E4
:104F6000224B98470238001B2B00FF2D0CD8FF283E
:104F7000BCD94020F8E67100481E079B9C4660445F
:104F80001A4B98470138EFE74020EDE6044A136AD0
:104F900002210B4313621825D4E6C0467556000063
:104FA000000400406D690000FD680000CD54000061
:104FB000696A00000020004191690000015E010063
:104FC000E951010095D626E80B2E113E6143010000
:104FD00000002440E95601000000F03F8149010033
:104FE000155D01001955000000000840DD2E01008C
:104FF000F8B504000768084EB04725682000B047A0
:1050000083232B752B762B68022293432B60200081
:10501000B04701233B60F8BD094D000003681A7ECC
:10502000920707D502221A765B8B9B074120DB177C
:10503000184070475A8B520706D55968C022920211
:105040000A435A601820F4E70020F2E730B50268FE
:10505000002301240225117E21420BD1117E294219
:1050600006D101339BB201899942F4D8122002E0A3
:10507000002000E0002030BD10B504686268802385
:10508000DB02134363606162024B9847012323767E
:1050900010BDC0464D500000F0B5DE4657464E46A6
:1050A0004546E0B583B00600894605684C882B6804
:1050B0001B01DB0F9A464B7A002B2BD16B68584AA9
:1050C00013406B604B461B7A002B27D14B461B8845
:1050D0005B004A46527A92031343012213436B62E8
:1050E0003000504B984701905346002B03D04B465D
:1050F0005B88012B3BD06B68494A13406B60019B76
:10510000002B3AD0019803B03CBC90469946A24689
:10511000AB46F0BD897A444B9847CFE74B461B8896
:105120005B004A46527A92031343802212021343D1
:105130006B6230003B4B984701906B68384A1340D4
:105140006B600028DED13000384B98470190002872
:10515000D8D14B461B881B0A782213435B004A4672
:10516000527A920301210A4313436B62B8E76A68DB
:105170008023DB0213436B60C1E730002B4B984761
:1051800001900028BED1013CA4B28046284B9B462A
:1051900015E0012C20D03000264B984743465F1C79
:1051A000BFB22823EB5C4A46526841465354300054
:1051B0001C4B9847013CA4B2002815D1B8465C4569
:1051C00014D06B8B9B0627D5F37A002BE3D0534684
:1051D000002BDED1002CDED16A688023DB02134372
:1051E0006B60013CA4B2EAE7B8460190B37A002BA9
:1051F00009D130000F4B98472823EA5C4B465B6887
:1052000041465A547EE730000A4B98476A68C023EB
:105210009B0213436B60ECE74123019372E7C046A6
:10522000FFFFFBFF4D500000795000001D500000B3
:10523000FFFF0000094D0000F0B5DE4657464E4620
:105240004546E0B583B006000F0005684C88324B38
:1052500098477B7A002B1DD16B68304A13406B60F6
:105260003B7A002B1BD03B885B007A7A9203134376
:105270008022120213436B623000294B9847019041
:10528000002813D0019803B03CBC90469946A24632
:10529000AB46F0BDB97A3000224B9847DCE73B883B
:1052A0005B007A7A920313436B62E5E730001E4B92
:1052B0009847031E0190E5D1A0460024203399466B
:1052C000154B9B46164B9A46444515D06B8B4A4668
:1052D00013421DD03000D8477B681A5D2823EA545A
:1052E0003000D047002806D16B8B01345B07EBD52B
:1052F0001E23019300E00190B37A002BC2D030004E
:10530000054B98476A68C0239B0213436B60B9E75B
:1053100041230193B6E7C046094D0000FFFFFBFFA4
:105320004D500000795000001D50000010B50123C1
:105330008372C372014B984710BDC046995000005C
:1053400010B5002383720133C372014B984710BD1F
:1053500039520000F0B5DE4657464E464546E0B5A8
:1053600087B08046049116001F0000220023002110
:105370008B463F2401202100009601975C46039450
:105380004446059413E02024641A0500E540A8462D
:1053900014E0009C019D121BAB415C464D462C4322
:1053A000A346039C45462C430394013925D320246E
:1053B00064420C19E7D40500A540A84604008C40BF
:1053C000A14692185B4114001D00059E4F463E40C9
:1053D000B446049E47463E40B246664657463E4364
:1053E00003D00600264332002B00009C019D9D4205
:1053F000DBD8CED19442D8D8CBE7039B58461900CE
:1054000007B03CBC90469946A246AB46F0BD10B5ED
:10541000490840230024814202D2180010BD1C001C
:10542000091A631C9BB28842F9D94023FF2CF4D897
:1054300014800023F1E7FFFFF0B583B00F001600E2
:1054400008AA117804004C434022BC4202D9100043
:1054500003B0F0BD002B14D1020008000021194C4C
:10546000A04701003A0000230020174CA04700226B
:105470000123121A8B41120C1B041A4332800022A2
:10548000E5E70022012BF9D10A00002300210D4C91
:10549000A04702000B0000920193380000210A4C43
:1054A000A047050080239B0140229842CFD8790F66
:1054B000F800009A019BA047EA00821AD2B2520378
:1054C0002A43DBE7F93201005553000010B582B0E2
:1054D00004000E4B1B78002B07D0002905D10B4B85
:1054E0005B78834210D01D200CE001A90C701120C4
:1054F000074B98471120074B9847044B5C700122DB
:105500001A70002002B010BD0020FBE7BC00002094
:105510006D690000FD6800003C4B984232D00AD90A
:105520003B4B98424ED03B4B984255D03A4B984219
:1055300038D0002070478423DB0598420CD0374BCD
:105540009842F6D1012917D0002957D0022915D049
:10555000032915D00020EDE7012907D000294BD001
:10556000022905D0032905D00020E3E72C48E1E714
:105570002C48DFE72C48DDE72C48DBE72C48D9E74F
:105580002C48D7E7012907D0002939D0022905D0B6
:10559000032905D00020CDE72748CBE72748C9E7F6
:1055A0002748C7E7012907D000292BD0022905D0B9
:1055B000032905D00020BDE72248BBE72248B9E710
:1055C0002248B7E7022903D0032903D00020B1E71E
:1055D0001F48AFE71F48ADE7012907D0002913D0C6
:1055E000022905D0032905D00020A3E71A48A1E726
:1055F0001A489FE71A489DE71A489BE7032099E756
:10560000194897E7194895E7194893E700080042B9
:105610000010004200040043000C0042000400425D
:10562000030005000300060003000700030001005B
:1056300003001E0003001F000300090003000A000E
:1056400003000B000300110003001200030013000D
:1056500003000E0003000F000300170003001800F2
:1056600003001900030004000300080003001000F9
:105670000300160030B587B00B4B6A4632CB32C2FE
:1056800032CB32C2009B83420BD001239A00694681
:105690005258824206D00133062BF7D1002007B0C2
:1056A00030BD0023D8B2FAE73C7501007047FFFF18
:1056B000F0B50A4B1B78002B0CD1094F094E0A4D4F
:1056C0000024DE515A1914600433182BF9D1012239
:1056D000024B1A708000024BC150F0BDBE0000208A
:1056E000C0000020AD560000141F002000B583B09C
:1056F00008236A46137001335370013393700133EA
:10570000D3700133137101335371034B98476B46C8
:10571000185603B000BDC0467556000010B5024BC8
:105720001B680020984710BDC000002010B5024B38
:105730005B680120984710BDC000002010B5024BE7
:105740009B680220984710BDC000002010B5024B96
:10575000DB680320984710BDC000002010B5024B45
:105760001B690420984710BDC000002010B5024BF3
:105770005B690520984710BDC0000020F0B5D646F3
:105780004F464646C0B58AB006000F00140031608F
:105790000B689B070AD40B680520DB0700D4AFE039
:1057A0000AB01CBC90469946A246F0BD936A059388
:1057B000D36A0693136B0793536B089300250AE093
:1057C0003800B64B98470EE00F231840814530D182
:1057D0000135042D31D0E9B2AB0002AA0C20121819
:1057E000D0580028ECD0431CF2D001040B0C994691
:1057F000000CC3B29C460023020605D463465B0935
:10580000DB01A74A904643441F2260460240981895
:1058100040300078824680205146C907D6D55208CC
:105820009B1830331878C0B26346DB07CCD500092B
:10583000CCE7002333601C20B2E71120994B984736
:1058400022780025012A16D02178002927D13B682B
:10585000E27F1204A07F02431C209A42A0D1A369D8
:10586000A28B0430205C002801D040200243082095
:1058700003431D4314E004AA0100A0698A4B984722
:1058800003001720002B00D08AE73B7BDBB204AA81
:10589000127805309A4200D082E70C35D4E7002216
:1058A0006368A0680343E06803432B43207C024302
:1058B000607C002801D080200343A07C002802D017
:1058C000802080020243E07C002802D080208000FB
:1058D0000243207D002802D08020800102433868E6
:1058E00002252B43834203D0002333601C2057E75B
:1058F0007B689342F8D17171237CB37100204FE72C
:1059000008006A4B9847052800D1BFE00300123316
:105910006749CD69012282402A43CA6109A9242529
:10592000625D0A70DBB201931800624B98470198E0
:10593000614B9847605D0021604B98472378012BAD
:1059400020D02378002B03D13B68082213433B600F
:105950003368984604AB80221A7000225A700121E5
:105960009970DA702378002B01D104AB9A70A36A86
:105970000593E36A0693236B0793636B08930027F1
:1059800005AD11E03B680C2213433B60D9E740466C
:10599000424B98470DE004A90870000CC0B2484B78
:1059A00098470137042F07D0F9B2BB005859002897
:1059B000EDD0431CEFD1F4E723787371237CB371EE
:1059C000A37CF371237D3372002202ABDA8023784B
:1059D000012B14D02378002B29D1A069A28B434638
:1059E0005B6AE17F0904A57F294319434346596255
:1059F0002023E35C002B1CD040231A4319E03068BD
:105A00002A4B98471230C0B2264B9847010002AB90
:105A10009A1DA069244B984703001720002B00D043
:105A2000BEE602AB06331B7842461373D2E7002270
:105A300000206368A1680B43E1680B430343217CAA
:105A40000A43617C002903D11E498978890701D561
:105A500080210B43A17C002902D0802189020A43C6
:105A6000E17C002902D0802189000A43217D0029A0
:105A700002D0802189010A43414609680B4341460F
:105A80000B604B681A434A60002089E6084A136A93
:105A900002210B431362182340E7C046195500004A
:105AA00000280040916900000F5400007556000066
:105AB000000400406D690000FD680000CD54000046
:105AC000696A00000020004110B544791523012CBB
:105AD00001D0180010BD047A0023002CF9D1002A4F
:105AE00058D04B78002B44D003681B7EDB0710D4C2
:105AF0000A78D1090023002904D15309DB012E497A
:105B00008C4663441F21114001228A409A6105237B
:105B1000DFE70A78D4090023002C04D15309DB0104
:105B2000254CA44663441F2414400122A2405A611C
:105B300003681A7ED20701D58A789A62C279002357
:105B4000002AC6D102680421137E0B42FCD0117ECC
:105B500000234907BDD5538B5B0701D5042353832D
:105B60008379012B02D0936A0023B2E7936A002362
:105B7000AFE70A78D1090023002904D15309DB01DA
:105B80000D498C4663441F21114001228A405A610D
:105B900000239EE70A78D1090023002904D1530984
:105BA000DB0105498C4663441F21114001228A40D4
:105BB0009A6100238DE7C04600280040F0B5DE461C
:105BC00057464E464546E0B591B005000C0016001C
:105BD00029600800C64B9847020005280DD0070031
:105BE0001237030021680520C90709D511B03CBC54
:105BF00090469946A246AB46F0BD18270123F1E72F
:105C0000216817308907F1D4052A49D0B949C869F4
:105C100001229A4013000343CB610FA92D2398461C
:105C2000F35C0B70FFB23800B34B98473800B34BAE
:105C300098474346F05C0021B14B9847F37A6B716B
:105C40002423F35CAB712523F35CEB71F37E2B72A1
:105C5000337F6B722B6898461800A54B9847052830
:105C600026D0123000220E2306A98C4663441A80E7
:105C7000328A02928023DB019A4200D1ABE019D92B
:105C8000C023DB01029A9A4200D19FE080231B02CD
:105C90009A4200D027E1032306930023079312E0E2
:105CA0009449086A043A9A40130003430B62B4E72C
:105CB0001820D7E780239B019A4200D013E11023DC
:105CC00006930F3B079333680593F3680393736957
:105CD0000493337E9B462623F35C9A467368994669
:105CE000002B00D19FE080235B05994504D1272339
:105CF000F35C002B00D184E0737E002B02D0B37ED6
:105D0000424693732A68029FD369002BFCD10E335D
:105D100006AA944663441B8842469381059B039AD6
:105D20001343049A13434A4613431F435B461B0223
:105D30001F4353465B071F432723F35C002B01D10E
:105D400004331F43737E9B02327F52021343727FE0
:105D5000120213432422B25C520413432522B25C84
:105D600012041343B17AF27A114319433389FF2B9A
:105D70007DD080225204174319432C23F35C002B5F
:105D800003D1604B9B789B0701D580231F432A6872
:105D9000D369002BFCD1434659602A68D369002B94
:105DA000FCD143461F600EAB80221A7000225A704D
:105DB000DA709A70336B0A93736B0B93B36B0C931B
:105DC000F36B02930D9300270AAE5EE0082306935F
:105DD000073B079377E733680593F3680393736989
:105DE0000493337E9B462623F35C9A467368994658
:105DF000002B14D080235B05994500D177E7002064
:105E000020E0336A1F00C0B23F4B984701000E22CA
:105E100006AB9C46624438003C4B984712E008238E
:105E20000693002307932723F35C002B0ED0069BD9
:105E30000093079B0E2206A98C466244B16A306A21
:105E4000334FB847002800D0D0E655E7336A1F002B
:105E5000C0B22D4B98470100069B0093079B0E2272
:105E600006A8844662443800294FB847EAE7F37E23
:105E7000002B82D08023DB041F437EE72000254BCC
:105E8000984707E00137042F0DD0F9B2BB009859AD
:105E90000028F3D0431CF5D00EA90870000CC0B246
:105EA0001D4B9847EEE70023EB602B616B61AB6104
:105EB000EB612B62AB626B620022EB85AB8530330A
:105EC000EA540133EA540133EA540133EA542868AE
:105ED000074B984704001149114B9847A400114BF8
:105EE000E550002082E61023069300230793EAE69C
:105EF00075560000000400406D690000FD68000058
:105F0000CD54000000200041916900000F540000B2
:105F10003954000019550000696A0000A5610000AD
:105F2000B1560000141F0020C2791C23002A01D1A1
:105F300018007047C28D92B2173B002AF8D103684F
:105F4000DA69002AFCD1198502211A7E0A42FCD0A6
:105F50000023EDE782791C23002A01D11800704745
:105F6000828D92B2173B002AF8D10268107E40075A
:105F7000F4D5D369002BFCD1538BDBB298061DD02E
:105F8000980703D5022353831833E7E7580703D54F
:105F9000042353831A33E1E7D80703D5012353833E
:105FA0001233DBE7D80603D5102353833233D5E70A
:105FB0009B0603D5202353832133CFE7138D0B801A
:105FC0000023CBE7F0B5CE46474680B583B0050049
:105FD00001911720002A04D103B00CBC90469946C9
:105FE000F0BDEB790530002BF6D02C68E369002B6F
:105FF000FCD1013A93B29946002601271F4B9846DF
:1060000011E0731C9BB2019A915D6A79012A17D045
:1060100089B21E0028001A4B98474B46013B9BB2A1
:106020009946434513D0237E3B42EAD1134B227E4F
:106030003A42E6D1012B19D0013B002BF7D1E0E722
:106040000236B6B2019AD35C1B021943E2E7237E03
:106050009B070DD4094B0221227E0A420AD1012B53
:106060000AD0013B002BF7D10020B5E71220B3E79F
:106070000020B1E70020AFE71220ADE7FFFF0000EE
:10608000295F0000F0B5D64600B584B00400019148
:106090001720002A03D104B004BC9246F0BDA379B6
:1060A0000530002BF7D02668013A93B29A460025B6
:1060B000042719E0002302AAD380911D2000154B6C
:1060C00098470028E7D1691C89B202ABDB88019AA6
:1060D00053556279012A14D00D005346013B9BB2FF
:1060E0009A460D4B9A45D6D0337E3B42E2D10A4BBD
:1060F000327E3A42DED1012B09D0013B002BF7D191
:10610000D8E70235ADB21B0A019A5354E5E71220D5
:10611000C1E7C046555F0000FFFF0000F8B504006E
:106120000D00160007680F4B9847A38D9BB2002BFC
:1061300003D00D4B98470520F8BDA6850A4B98471C
:10614000656205223223E2542E3BBB75237A002B75
:1061500001D02023BB75637A0020002BECD00823EC
:10616000BB75E9E7F944000039450000931C9B002A
:10617000C31859603021012393401A00435C134334
:106180004354704710B51723002A01D1180010BDE1
:1061900084790533002CF9D0014B98470300F5E7CB
:1061A0001D610000F8B58000624BC5582C68E3699A
:1061B000002BFCD1237EA67D1E403023EB5C3122D8
:1061C000AF5C1F40F30722D5EB8D9BB2002B1CD098
:1061D000AA6A1378DBB2511CA962697901290ED031
:1061E0009BB2DB05DB0D2385EB8D013B9BB2EB8581
:1061F000002B0CD1013323750133A37507E05178CF
:1062000009020B430232AA62EBE701232375B307AD
:1062100006D50223237500223133EA54FB071AD432
:10622000730765D5AB8D9BB2002B5FD0638BDBB260
:106230001A0714D43F221340002B34D09A0711D5EB
:106240001A223223EA54303B63837B0750D528005F
:106250006B6998474CE02800EB689847E0E73722E5
:106260001340E9E75A0705D51E223223EA542E3B94
:106270006383EAE7DA0705D513223223EA54313B78
:106280006383E2E7DA0605D542223223EA54223B51
:106290006383DAE720221A42D7D021323223EA542C
:1062A000123B6383D1E7238DDB05DB0DDAB2696A2C
:1062B0000A706A6A511C69626979012910D0AB8D34
:1062C000013B9BB2AB85002B12D104332375002216
:1062D0002E33EA54BB070BD528002B69984707E0FB
:1062E0001B0A53706B6A01336B62E8E70423237562
:1062F000F30604D5102323752376FB060ED4B306CC
:1063000004D52023237523763B070BD4330704D50C
:10631000082323752376BB0608D4F8BD2800EB6953
:106320009847ECE72800AB699847EFE72B6A28000D
:106330009847F2E7141F002010B5082803D8800002
:106340001C4B1B589F46002032E01B4B18692FE066
:106350001A4B187D0007800F431C1948584327E04B
:10636000154B586924E0144B1B6800209B071FD570
:10637000124980225200CB681342FCD00E4B1B689E
:106380005B0701D40F4813E000200F4B98470A4BDE
:106390009B681B041B0C58430AE02823074AD35C64
:1063A00000209B0704D5044BD86801E08020000240
:1063B00010BDC04654750100D8000020000C0040FC
:1063C00000093D00006CDC029169000070B50B4CC7
:1063D000237D8578467802780321114089000C22BC
:1063E00093430B430B3A3240920140218B431343BA
:1063F000ED017F2213402B43237570BD000C00403C
:10640000F0B5D6464F464646C0B5204B9A465B6926
:10641000457801784C424C41A14681788C46C17840
:106420008846467A077A847A40681949486101218A
:106430004846800004229343034340460840C0007E
:1064400004329343034360460840000108329343FB
:1064500003430F40BF01402083433B430E40F601FE
:10646000403083433343793805402D0209480340C7
:106470002B4321400903084803400B435246536114
:106480001CBC90469946A246F0BDC0460010004094
:10649000D8000020FFF8FFFFFFEFFFFF082803D818
:1064A0008000294B1B589F4617204BE0274A137D3D
:1064B00002210B431375002044E0254A9369022111
:1064C0000B43936100203DE0204A138A02210B43D5
:1064D0001382002036E01E4A536902210B435361A8
:1064E00000202FE01B490B68022213430B60174B5F
:1064F0001A831900FE32CB681342FCD0154A91680A
:10650000124B19625268DA6100221A8319000132B3
:10651000FF32CB681342FCD00E4B1B689BB20B4A78
:10652000138300200EE0094928228B5C02200343DC
:106530008B5408003821263A435C1342FCD10020DA
:1065400000E000207047C04678750100000C004054
:1065500000100040D8000020082832D880001A4BD4
:106560001B589F46194A137D02218B431375002047
:106570007047174A936902218B4393610020F7E724
:10658000124A138A02218B4313820020F0E7104A3B
:10659000536902218B4353610020E9E70D4B1A68D0
:1065A00002218A431A601B689BB2084A13830020A9
:1065B000DEE7064928228B5C022083438B540020AF
:1065C000D6E71720D4E7C0469C750100000C0040B8
:1065D00000100040D8000020F0B5D6464F46464691
:1065E000C0B588B080225200564B9A60FD3A564B97
:1065F0009A60564A53681E218B431A390B435360E5
:106600008023DB059B78022B0FD08023DB059B7852
:106610005BB2002B09DB8023DB0501229A7101327A
:106620009A701A009379002BFCD005A80023037000
:1066300080221202426083700122C2700372837250
:10664000033242704372424B98470520414B9847B2
:1066500041490122CB681A42FCD03F4A536980214C
:106660000B43536102A901254D6000244C700C724C
:106670004C7203230B700020384B98470620384B90
:10668000984701A8447005708470364B98470620DF
:10669000304B98472B491022CB681A42FCD002ACF1
:1066A000012666600025657006239A4623702572D0
:1066B000657221000020294B984698472A4B98473D
:1066C00066606570657205232370267221000120C3
:1066D000C0470120254B99469847254FBE717E71D2
:1066E0003E716660657053462370257265722100A5
:1066F0000020C0470020C84700201E4B984739792A
:10670000C9B21D4B98471D4B984214D88023DB0516
:106710009B78002B0FD08023DB059B785BB2002B8E
:1067200009DB8023DB0501229A7100229A701A008E
:106730009379002BFCD008B01CBC90469946A24629
:10674000F0BDC046000C0040001400400040004175
:10675000016400009D64000000100040A567000077
:1067600059650000CD63000081670000516800009A
:106770000004004091680000DD2E0100001BB700FE
:10678000064A536940210B4353610122044B1A709E
:1067900019000B781342FCD17047C046000400403A
:1067A0000018004070B504000D784B78002B02D023
:1067B0008023DB001D434B7A002B02D080231B017A
:1067C0001D43486801280FD9431E184231D10228C1
:1067D0002DD90223002201325B009842FBD880238E
:1067E0005B011D43120415430B7A002B02D080235A
:1067F0009B011D430426A6401149124A4B681340D1
:106800001E42FBD1104B9847A4000D4B9C4664449C
:10681000226A80235B001A402A4322626146094AA9
:106820004B6813401E42FBD1084B984770BD0022B5
:10683000D5E7000480239B0018430543D4E7C046F6
:1068400000180040FC070000F94400003945000032
:1068500010B504000422824009480A4943680B40ED
:106860001A42FBD1084B9847A400054B9C46644450
:10687000226A80235B0013432362044B984710BDB8
:1068800000180040FC070000F944000039450000F2
:10689000F8B50400042282401248134943680B40B3
:1068A0001A42FBD1114B98470E4F0834A400E0590F
:1068B0000007000F0E4B98470600E559ED04ED0F59
:1068C000E459240C0B4B9847002D07D1012C07D914
:1068D00021003000084B9847060001E00134E640F3
:1068E0003000F8BD00180040FC070000F94400002B
:1068F0003963000039450000DD2E010010B50400A9
:10690000094B9847A000094B9C466044802283585D
:1069100040210B4383504031403A43581A42FCD047
:10692000034B984710BDC046F944000000180040D2
:106930003945000010B50400094B9847A000094BE9
:106940009C4660448022835840218B4383504031D1
:10695000403A43581A42FCD1034B984710BDC046F9
:10696000F9440000001800403945000070B50400EB
:106970000D00054B98472A780F2313402034A400BC
:10698000024AA35070BDC04635690000001800409F
:1069900010B50400064B98472034A400054BE4587A
:1069A0002407240F044B98472000044B984710BD40
:1069B000F9440000001800403945000091680000CB
:1069C00030B5D378002B35D11378802B29D01B0616
:1069D00080246402234354780225AC4306D1947882
:1069E000002C20D18024A402234341605478013C30
:1069F000012C1CD90D042D0CA024E4052C431C43B0
:106A000084620D0CD02424062C431C438462D47869
:106A1000002C22D15B031CD59378012B1ED0416141
:106A200017E00023D7E7C024E4022343DDE70D4C41
:106A30002340DFE741600C04240CA023DB05234343
:106A400083620C0CD0231B0623438362D378002B74
:106A500003D15378013B012B02D930BD8161F8E7A6
:106A60008160FAE7FFFFFBFF10B50A00C1090023B0
:106A7000002904D14309DB0105498C4663441F24E6
:106A80002040012181401800024B984710BDC046AC
:106A900000280040C16900007047FFFF10B5054B9A
:106AA0009847054B9847054B9847054B9847054B2A
:106AB000984710BDD965000069450000996A00003B
:106AC00095480000996A0000931C9B001950022A07
:106AD00009D0032A0CD0012393401A00037E1343EC
:106AE000037600207047037E102213430376F8E7F5
:106AF000037E202213430376F3E7FFFF70B5800087
:106B0000164BC45823689D7A227E637E13401D4035
:106B1000EB0706D4AB070BD4EB0610D4AB0615D4A9
:106B200070BD2000A3689847012322689372F1E7A3
:106B30002000E3689847022322689372ECE7200064
:106B400023699847102322689372E7E7200063695E
:106B50009847236820229A72E2E7C0462C1F002043
:106B600010B50020014B984710BDC046FD6A0000DB
:106B700010B50120014B984710BDC046FD6A0000CA
:106B800010B50220014B984710BDC046FD6A0000B9
:106B900030B587B001A90C4B0A0032CB32C212CB00
:106BA00012C2019B98420BD0012301A99A005258AE
:106BB000824206D00133052BF8D1002007B030BD4A
:106BC0000023D8B2FAE7C046E8750100F0B5C64622
:106BD00000B58EB004000D0016000800AE4B9847BB
:106BE00080460CAB1B221A705A7001329A70DA7010
:106BF00001321A7102A9A94B14330A0083CB83C254
:106C000083CB83C283CB83C21B6813600023A36042
:106C1000E360236163612376637643469A00A04B69
:106C2000D45025603423F35CA376F378082B08D086
:106C300023712B680520DB0708D50EB004BC9046F5
:106C4000F0BD17204246D207F7D4F1E7EB7A1730B0
:106C50009B07F2D42B689B07EFD4337C002B12D117
:106C6000337F002B1BD143465A0002A9531C9B00C3
:106C700058584346DB005B58D9B2042923D88B000F
:106C80008849CB589F4601A901238B700022CA7006
:106C9000327E0A704B70307D834B9847E0E701A944
:106CA00001238B700022CA702432B21812780A7045
:106CB0004B701F33F31818787B4B9847D3E77B4909
:106CC0004B6918434861F378082B00D186E033788C
:106CD0006A4613700CAB42469F5C69463800744BA1
:106CE00098473800734B9847F378F2791343B2888A
:106CF0001343727A002A02D0802252021343B27ADE
:106D0000002A02D0802292021343F27A002A02D093
:106D1000802252031343327B002A02D08022920346
:106D2000134371788901B278D20111431943226863
:106D30001369002BFCD1296022681369002BFCD158
:106D4000B3792B73717B4B1E99418900B37B002B68
:106D500001D00123194322681369002BFCD1FF33B2
:106D60002B71002904D022681369002BFCD16971B2
:106D7000337A6B7322681369002BFCD12379042BBF
:106D800059D0082B74D01720002B00D055E7136979
:106D9000002BFCD1338DAB8222681369002BFCD110
:106DA000738DAB8322681369002BFCD1B38DEB8309
:106DB000002042E73D498B691843886183E73B49DE
:106DC000CB691843C8617EE738490B6A18430862EB
:106DD00079E7364B596A0843586274E743460133F2
:106DE000042B00DD73E702ABD11C8900C9580232C5
:106DF0009200D358DAB2042A00D968E793002E4AE9
:106E0000D3589F46294A5369194351615FE7274A7E
:106E10009369194391615AE7244AD3691943D161AF
:106E200055E7224A136A1943116250E71F4B5A6A09
:106E3000114359624BE71369002BFCD12833F35CF3
:106E40002B7522681369002BFCD12933F35CEB7698
:106E500022681369002BFCD12A33F35C2B7722685C
:106E60001369002BFCD12B33F35C6B770020E4E635
:106E70001369002BFCD1B36A6B6122681369002B84
:106E8000FCD1F36AEB6122681369002BFCD1336BF0
:106E90002B620020D1E6C046916B0000E87501002E
:106EA0002C1F0020C0750100696A0000000400402A
:106EB0006D690000FD680000D47501000268136967
:106EC000002BFCD1137101680B69002BFCD18033BE
:106ED000537153795BB2002BFBDB02681369002B03
:106EE000FCD10379042B05D0082B09D00020002BFE
:106EF00003D07047107DC0B2FBE7908A80B2F8E7FC
:106F00005069F6E710B504682369002BFCD10379BA
:106F1000042B06D0082B28D0002B13D017231800E1
:106F200010BD17230129FAD8837E002B05D0D2B2D9
:106F3000611830310A700023F1E7D2B26418227769
:106F40000023ECE717230129E9D8837E002B05D025
:106F500092B2183149000A530023E0E792B20C3193
:106F600049006418A2800023D9E717230129D6D845
:106F7000837E002B05D106318900641862600023EE
:106F8000CDE70C3189000A510023C8E7FEE7FFFF77
:106F900010B51A4A1A4B9A4211D01A00194B9A424C
:106FA0000DD2194A03339B1A9B0801339B00002220
:106FB000134812498C58845004329A42FAD1134A29
:106FC000134B9A420AD2D34311495B1803218B43D6
:106FD00004339B18002102C29342FCD10D4AFF21C9
:106FE0000D4B8B4393600D4A53687F390B435360BD
:106FF0000B4B98470B4B9847FEE7C0467085010046
:1070000000000020840000200400002088000020F0
:10701000DC34002000ED00E00000000000400041F2
:10702000D9600100BD770000F0B5C64600B50C0080
:10703000904600280FD1002A11DD8F18094E0A4D05
:10704000306821002B6898470134BC42F8D1404693
:1070500004BC9046F0BD01235B429846F7E78046AA
:10706000F5E7C046481F0020401F0020F0B5C64687
:1070700000B50E0015000138022810D8002A11D0E2
:1070800000240C4B98460C4F43461868315D3B6812
:107090009847002808DB0134A542F5D106E0012419
:1070A000644203E0140001E001246442200004BCB7
:1070B0009046F0BD481F0020441F00200300064AF0
:1070C0001268002A04D0044A1068C318136070477D
:1070D0000249014A1160F6E7F0000020E054002068
:1070E00001204042704780239B014B600020704785
:1070F000012070470020704700BEFEE77047012066
:107100004042704730B5531EDBB2002A0BD000243A
:10711000C5182A7852002243CA542C78E409013B4E
:10712000DBB2FF2BF4D130BD10B584B004001100E8
:1071300010226846044B984769462000034B984745
:10714000002004B010BDC0463F61010095C700009B
:1071500010B5014B984710BD297100000020704701
:10716000F0B5D6464F464646C0B5A4B001900F00D4
:10717000029103929A462CAB1C8808AE1022002183
:107180003000644DA8478723F3731022002104A820
:10719000A847019A390004A85F4B984704AB1B78B5
:1071A0007F2B2DD8102220A904A85C4B984720AB38
:1071B0001B787F2B34D810221CA920A8574B984746
:1071C00023000F331D11AAB29046002A38D022079F
:1071D00038D14246013A120196B2514F1F40BE4289
:1071E00054DA330010A920AA981B80B25446E45CFC
:1071F000155C6C400C5401339BB2BB42F4DB45E0A0
:10720000102220A904A8454B9847002320AA08A9CA
:10721000985C5D5C684098540133102BF8D1C6E748
:1072200010221CA920A83D4B984700231CAA08A99E
:10723000985C5D5C684098540133102BF8D1BFE72F
:10724000012398460F232000984300230F22144067
:107250000CA900278026504405E0944209D05F54D1
:107260000133102B07D09AB29442F6D9C25C5A541B
:10727000F6E75E54F4E7002310A80CA91CAA5C5C96
:107280009D5C6C401C540133102BF8D1102200215E
:1072900018A8204B984701235B424344994600209D
:1072A0000027002B1ADD14AD18AC1E4E0001002380
:1072B0005044C25C195D4A405A550133102BF8D135
:1072C000102229002000B047019A02992000124B99
:1072D00098470137BFB238004F45E7DB002314ACB5
:1072E00018A810A91A5C5D5C6A401A550133102B6E
:1072F000F8D1019A029914A8074B9847102214A9B3
:107300000398084B9847002024B01CBC904699462F
:10731000A246F0BD51610100297100000571000015
:10732000F0FF0F003F61010010B50E480E4CA04762
:107330000E48A0470E48A0470E48A0470E48A04759
:107340000E48A0470E48A0470E48A0470E48A04749
:107350000E480F4CA0470F48A0470F48A0470F48C2
:10736000A04710BDC4760100F96601003477010022
:107370006C77010094770100B4770100D0770100A9
:10738000107801004C78010088780100D078010065
:1073900015680100D4780100F8780100187901001F
:1073A00070B50400002909D009480A4DA8472100FA
:1073B0000948A84709480A4B984770BD0948054D38
:1073C000A84721000448A8470448054B9847F4E71C
:1073D0005C760100F966010058760100E880010042
:1073E00015680100387601007047FFFFF8B52A4B99
:1073F0001B781B0726D4284B1B789B0727D01C2102
:107400002648274B9847244C617B2648264B9847B3
:1074100023785B0620D403212448214B98471E4B38
:107420001B7B002B0AD000241B4D214EAB68185D3E
:10743000B0470134E4B22B7BA342F7D81D481E4B62
:107440009847F8BD09211D48154B9847D3E71A21E5
:107450001B48134B9847D6E707211A48104B98470B
:107460000D4B1B7807247F2B09D80B4F164E0E4D62
:107470007B68195D3000A847013CF9D2CBE7064E86
:1074800073685978104D2800074CA0477368197825
:107490002800A047BFE7C0464C2900203C790100E6
:1074A00075BC000074790100F9660100887901005B
:1074B000A1BC0000E88001001568010030790100DE
:1074C000587901007C790100847901007047FFFF41
:1074D00070B505000448054CA04729000448A047A2
:1074E0000448054B984770BD7C760100F9660100A1
:1074F00058760100947601001568010010B5024825
:10750000024B984710BDC046247601001568010063
:1075100000B583B001A900230B7001224A708B7063
:107520000720124B9847124B1B6A1B060FD5114BB5
:107530001B780020002B01D003B000BD01220D4BB1
:107540001A700D4B98470D4B18600120F4E70A4B59
:1075500098470A4B19680A4B98470A4B984202D938
:107560000022044B1A700020E6E7C046A94B000039
:10757000002800404C1F002015BA0000501F0020BA
:1075800075BA0000FF3F000010B50520034B984777
:10759000034B1878034B984710BDC04695970000E1
:1075A000F7000020C5CE000010B514000A0001004D
:1075B0000548064B9847064B1878064B984720001D
:1075C000054B984710BDC046607A0100F96601007E
:1075D000F7000020C5CE000091B80000F0B5C64607
:1075E00000B586B007000122524216236B441A8070
:1075F00010201C4B9847061E26D000221A4B1A70EA
:107600001D001A4B9846541CE4B2B7542B78F05C1A
:10761000C0472B780133DBB22B702200002BF2D055
:10762000134A1378591C1170124A029201220192D6
:107630000093330022001621694402200E4CA0471B
:10764000002805D10D4B984706B004BC9046F0BD0C
:107650000B4B1878002300930A4B00220A490B4C6D
:10766000A047F1E7D5B70000681F0020A1BC0000CB
:10767000F6000020A975000015A60000FD740000AA
:10768000F700002089750000404B4C00ADCB000096
:1076900010B5012206490748074B9847074B984702
:1076A000012800D010BD3130054B9847FAE7C0469D
:1076B000541F0020A01F00208561000011750000EC
:1076C000DD75000000B583B06B46D871202803D16A
:1076D00012380D4B98470BE00D38C3B2272B0ED84C
:1076E00098000A4B1B589F466B46D81D084B98477D
:1076F00003B000BD6B46D81D054B9847F8E70E2038
:10770000014B9847F4E7C046DD7500008C79010015
:107710002DD9000010B5114B1A8843889A4205D024
:107720008278C1780E480F4B984710BD0E4B9B686E
:1077300018780E4B98470E4B98470E4B18780E4B07
:1077400019780131C9B219700C4B98478022120385
:107750000B4BDA610B4B9847E7E7C046B826002091
:107760002C7A0100F96601004C290020C576000042
:10777000ED730000F5000020F4000020CD7400003F
:1077800000280040E973000010B5024B9847002024
:1077900010BDC046057B000010B5064B9847C31DC1
:1077A000054A013819781170013B01328342F9D141
:1077B00010BDC04659D600001400002070B50F4B14
:1077C00098470F4B98470F4B98470F4B984701220C
:1077D0000E4B1A70BFF35F8F62B60D4B98470D4B7F
:1077E00098470D4B98470D4B98470D4B98470D4BBD
:1077F00098470D4D0D4CA847A047FCE79D6A000037
:1078000061440000EDD8000021D9000008000020EC
:1078100029BB00009977000011CB000029730000FC
:107820003579000049D1000059D10000057B0000E6
:1078300010B5040001000648064B9847002C01D003
:10784000062C04D1044B19780448024B984710BD0C
:10785000887A0100F966010011000020A87A010071
:10786000F0B5DE4657464E464546E0B583B00300C8
:1078700001908B46013B994640D400240023984652
:10788000244B9A464B4600931FE00920224EB047F6
:107890004B46997B214C2000214DA8472148A84701
:1078A0004B4659892000A8470920B0474B46197814
:1078B0002000A8471C48174B984743460133DBB2CA
:1078C00098461C00009B984518DC1848D047611C5E
:1078D0001248134B984709200F4B984743461B010A
:1078E0005B4499461C0008341F000C4E0C4D217857
:1078F0003000A847013CA742F9D1C6E701990C48DE
:10790000074B984703B03CBC90469946A246AB460D
:10791000F0BDC046156801002D67010074790100B3
:10792000F96601008C7B0100E8800100587B0100B2
:10793000907B0100F0B587B05248534B98478022A6
:107940001203524B9A6100210020514B98470F249B
:107950006C440123237001204E4B9847FF2727706A
:10796000210004204C4EB04721784C484C4CA04795
:107970000E256D442F7029000820B047297849480A
:10798000A0470D256D4407232B7029001620464E75
:10799000B04729784548A04703AD29000720B047E4
:1079A00029784348A047434B9847434B98470022C8
:1079B000002304920593414E0832310004A8404D43
:1079C000A847040001225242D317049205930932BA
:1079D000310004A8A84700283BD0002C39D03748F4
:1079E000384B98470020384B9847384C2078002176
:1079F000374B9847374A012149420520364B984773
:107A000021000020354B984700282CD00A226A44D8
:107A100001235B4213802D4B1878314B00930023D8
:107A20000021304CA047FF2822D0284B1878012194
:107A3000274B9847FF202C4B984780221203134B6B
:107A40005A612A4B98472A482A4B9847012007B089
:107A5000F0BD1A4C26000836274DA8472070013487
:107A6000B442FAD1BBE7194B1878244B9847CDE7BD
:107A7000164B1B7801229A40194B0A210020204CFA
:107A8000A047D7E715770000A1AB00000028004011
:107A90006DA7000025A20000BDDB0000DC7A01001C
:107AA000F9660100FC7A01006DA20000147B010060
:107AB000287B010071A30000296801001400002048
:107AC0002161010095A3000081AB00000D000020A2
:107AD000A1730000617800005DB6000049A70000B6
:107AE0003178000069B40000B9A80000E973000013
:107AF000F700002079CB000085680100D1740000F8
:107B000019A8000010B5024B9847024B984710BDCA
:107B100015AD000091760000F0B5C64600B584B002
:107B200014001F00294BCB1840031D18002F1AD03A
:107B3000274B5A1E95421CD87A1993421FD3C91954
:107B400080239B01994220D8224B98463E1C102F3F
:107B500000D91026B6B2320029006846C047002E70
:107B600028D000231FE01C4B1C4AD9211C481D4C67
:107B7000A0471D4B194ADA2119481A4CA0471B4B44
:107B8000164ADB211648174CA047194B134ADC2133
:107B90001348144CA047FF21914212D10133DBB2AC
:107BA0009AB2964206D96A46D25C002CF3D021786C
:107BB0000134F1E7BF1BBFB2AD19002FC6D10120C0
:107BC00000E0002004B004BC9046F0BD00040000BA
:107BD000004400003F610100BC7B0100C87C010043
:107BE000CC7B01007D600100107C01002C7C010039
:107BF000607C010070B51500440313480818241870
:107C0000124A501E84420DD8E018824210D3C9187F
:107C100080229201914211D81A00210028000C4BB9
:107C2000984770BD0B4B0C4A72210C480C4CA04776
:107C30000C4B094A73210948094CA0470A4B064AD4
:107C400074210648064CA0470004000000440000D0
:107C50003F610100107C0100907C0100CC7B0100A1
:107C60007D6001002C7C0100607C0100F0B5DE46E7
:107C700057464E464546E0B593B001929A46464C6B
:107C80000C1940032518002B47D0444B5A1E95422F
:107C900049D85246521993424BD3D346514480237C
:107CA0009B0199424BD83E4B1B68002B00D0984754
:107CB0003F272F40EC1B4026F61B5E4500DD564655
:107CC000B3B29B464022FF2102A8364B98473B00A7
:107CD00002AA9446634400933604370C3A00019993
:107CE0001800314B9847314B9847314E402202A93A
:107CF0002000B0470528F9D02E4B984753465A46E6
:107D00009E1AB6B2EC19019B9946B944002E3BD09D
:107D1000244B9B46244B984631E0274B274A8A2127
:107D20002748284CA047284B244A8B212448254C1F
:107D3000A047264B214A8C212148224CA047244BA6
:107D40001E4A8D211E481F4CA0479FB24022FF2192
:107D500002A8D8473A0049460098C047134B9847B5
:107D6000134D402202A92000A8470528F9D0114B45
:107D70009847F61BB6B2E419B944002E04D0331C60
:107D8000402EE2D94023E0E713B03CBC9046994630
:107D9000A246AB46F0BDC04600040000004400000F
:107DA000F8000020516101003F610100F94400002A
:107DB000494A000039450000BC7B0100A07C01005D
:107DC000CC7B01007D600100107C01002C7C010057
:107DD000607C010070B544030C482418FF239C43C9
:107DE0000B4B013B80229201A6189C4207D8094DFB
:107DF0002000A8470134FF34B442F9D170BD064BCE
:107E0000064AC2210648074CA047C04600040000AD
:107E100000440000214B0000107C0100B07C0100F8
:107E2000CC7B01007D60010010B513000022014CE5
:107E3000A04710BD197B000010B5014CA04710BD34
:107E4000197B000010B5054B1B68002B04D0984728
:107E500001235840C0B210BD0020FCE7640200209E
:107E6000012909D0002902D002290DD070470A4B00
:107E70001A8880181880F9E7074A13880F33C0184A
:107E80000F2398431080F1E7034A13883F33C0184B
:107E90003F2398431080E9E76A02002030B50029AB
:107EA00019D0FF2413E02300150A6B401D096B4015
:107EB00012025A401D036A405B015A4092B203000D
:107EC0005D1EAB41C018013989B2002903D00028DA
:107ED000E9D00378E8E7100030BDFFFFF0B5DE46DB
:107EE000574680B589B0019002919346109A002AB6
:107EF0000DD092469A445B449DB25E46029C01209E
:107F0000AB453ED0224F002C08D1002039E00022A2
:107F10009246F0E704AB5C89002C31D0102304AA10
:107F200021000198B84704AB9A88AA42F2D2DB88B4
:107F3000D3189BB2B342EDD9AB4201D21E00E9E7A0
:107F4000A91A89B2B24215D904AB5B8903930B001D
:107F5000ED1AADB25246002A08D010340919D21ACF
:107F60009246C91A89B20198094CA047AE420DD079
:107F7000039CC8E7AB1B9BB25E46029A0392E7E7FD
:107F8000002009B00CBC92469B46F0BD0120F8E7EA
:107F9000F57B0000F0B5DE46474680B587B004901B
:107FA00005919579D3791B021D43177953791B02EB
:107FB0001F432C0A64B2002C2FDB1C4B03931C4B79
:107FC000984611E0002D2AD01A4B00932B003A005E
:107FD00005990498184EB047002820D0290015E0D4
:107FE000013C64B2631C1AD0002CEBD0013DFF3D74
:107FF000ADB2104B009380235B003A0005990498C2
:108000000D4EB0470028EBD0802149007F18BFB249
:10801000039A0848C0470390E2E7044B0393039890
:1080200007B00CBC90469B46F0BDC046FFFF000069
:108030009D7E00002C010020DD7E000070B5164BF7
:108040001C78002C26D0154B1B88834216D00123A8
:10805000124EDAB294421BD91D00591C9A00B25A32
:10806000824201D00B00F4E79B000C48C018AD0021
:108070000A4B5D196B88002B03D070BD07480025A3
:10808000F5E7074B074A8C21FF310748074CA0470B
:108090000020F2E70020F0E7600200204402002008
:1080A000287D0100147E0100447D01007D600100F7
:1080B00010B5054B9847002804D08378C07800029B
:1080C000184310BD0020FCE73D80000010B50400FF
:1080D0000E4B984700280BD10D4B1B78062B0ED862
:1080E000591C0B4A11700B489B001C52C01810BD44
:1080F000094B0A4ACC21490009480A4CA0470A4BBF
:10810000064A9A21FF310648064CA0473D800000F0
:108110006002002044020020EC7C0100247E01006B
:10812000447D01007D600100087D010010B5084C10
:108130002078084B98472078802292010021064B36
:108140009847002803D080225200044B1A8010BDAB
:1081500068020020D57D0000297E00006A02002010
:10816000F0B583B001900D001600074F387813006A
:108170000A000199054CA047387833002A0001997C
:10818000034CA04703B0F0BD680200206D7C0000E6
:10819000397E000010B586B001AC4123A3701333C3
:1081A000E370013B2371053B63712833A371443BAA
:1081B000E3710390C0430490084B1B882382084A54
:1081C00010216B46981D074B9847208012222100F2
:1081D0000020054B984706B010BDC0466202002043
:1081E000FFFF00009D7E000061810000F8B50400E3
:1081F0000D00214A1388CB189BB21380FF2B2ED978
:108200001E4B1A88801880256D00AA1A1C491D4B28
:1082100098471D4B18882A0021001C4B9847051EC3
:1082200027D0002180204000194B9847134B188815
:1082300000221A80104B1E88013EFF3EB6B21E80FF
:10824000002E16D080214900091A89B20C4B59180A
:10825000320020000B4B9847084B1E8009E0074E68
:108260003788C0190A000649064B9847ED19358032
:1082700001252800F8BDC04628010020FC00002090
:108280002C0100203F6101006A0200206181000092
:10829000617E0000F0B5DE4657464E464546E0B5E5
:1082A000D5B07B487B4B984700237B4A13807B4AA1
:1082B00013807B4A13807B4A13807B4B1B781F0003
:1082C000039312230FAA00213800784CA047119B7A
:1082D0000993754C2500260008E03370724B1B781B
:1082E000BB420BD0724B984700280DD12378013345
:1082F000DBB2012BF1D900232B70EFE76D4B6E4AF7
:108300006E496F486F4CA0476F4B1B78002B6AD0AB
:10831000002306930133FF3399466A46D3826B4BA1
:1083200010330893069B07939F00694B9C46674454
:108330007B881D00049310230BAA29000398804614
:108340005A4CA0470BAE0023B3803489F48073816C
:10835000B3811034A4B23200290040465D4B9847E7
:1083600030805D4A0E210BA85C4B9847F081574D39
:108370004A46FF2128005A4B98472B0007CE07C3D7
:1083800032681A60574B1B88454A12889B187B80BD
:108390004C4504D9002610234C4A904668E00BABAC
:1083A0001B89089A00920022049903984E4EB04708
:1083B000002863D0079B9D00454B5D19494B1B88E6
:1083C000374A12889B186B80210014A8474B9847A6
:1083D000002853D0069B0133DBB21A0006933A4BB8
:1083E0001B7893429ED82F4B1A88002A06D03D4B0B
:1083F000188814A93E4B9847041E40D0294B188872
:1084000000213C4B9847374B1A883B4B1A80099800
:1084100001383A4B9847041E31D002210020354BD9
:108420009847374B6A46127B1A70364D2800194B15
:1084300098472800344B984721E0ADB2EF1ABAB202
:108440009346434400931300320004990398264F47
:10845000B847002812D0290014A8244B98470028B8
:108460000CD0641BA4B25E44B6B20023002CB1D081
:10847000251C4C45E1D96A46D58ADEE70024200058
:1084800055B03CBC90469946A246AB46F0BDC046AE
:108490001401002089B9000040020020420200209F
:1084A000FC0000202801002068020020F57B00006D
:1084B0002D810000E47C0100347E0100D503000022
:1084C000447D01007D600100600200202C0100203D
:1084D00044020020957F0000FFFF00009D7E000009
:1084E000516101006A020020DD7E0000ED81000084
:1084F00061810000617E0000620200209581000021
:108500000E0000202C020020F5B9000010B5074B2A
:108510009847002800D010BD054B9847054B064AE8
:108520002C21FF310548064CA047C046457E00007F
:1085300095820000E47C0100FC7D0100447D010087
:108540007D60010010B5124B1A8880239B019B1A95
:108550009BB2834203D30F4A93420AD910BD0E4BFC
:1085600098470028FAD10D4B0D4A0E490E480F4C82
:10857000A0470F480F4B98470028EFD10C4B0E4AED
:108580001A610E4A5A609A6000221A73E6E7C046E2
:108590006A0200200F08000095820000E47C0100C0
:1085A000447E01004E040000447D01007D60010016
:1085B00014010020C9B900000D850000102700003B
:1085C000F0B5DE4657464E464546E0B58BB0774B94
:1085D00098470523002807D018000BB03CBC9046F4
:1085E0009946A246AB46F0BD714B1888002846D18B
:1085F000704B1B88002B00D1D0E06E4B18886E4B5F
:1086000098478346002800D1CAE08278C3781B02CD
:10861000134319000393694B1878102306AA684C7A
:10862000A047634B1A88002A2ED0664B1B880593FF
:1086300006AB1B8906A90A81191C934200D9111C9B
:108640008BB206AA002191801089D080518191813E
:108650001C001034A4B25C4961CA61C112680A608E
:1086600080225200944239D90026102380225200E1
:10867000914669464A82514A92461A0088E0103073
:1086800080B2524B9847B8E706AB1889103080B2D9
:108690004E4B9847474B1888474B984783460028CE
:1086A00015D08278C3781B0213431900039306ACDC
:1086B000424B187810232200414DA847414B1B889C
:1086C000059323893A4A1288002ABAD0B2E7404B70
:1086D000404A9121C9004048404CA047374A107891
:1086E000394A10320092002203993D4CA0470123E1
:1086F000002800D170E7344906AB0A00180070C8A2
:1087000070C200681060DA88103292B22D4B18885F
:10871000344B98470023002800D15DE706ABD8888A
:10872000103080B20221304B98470023214A138039
:108730001F4A13805B46059999700B0A5A46D370FD
:10874000002349E7ADB2AF1ABBB2190053461878FF
:108750001D4B9B18009302910B0032000399204F90
:10876000B84700281ED0174B18882A0016491D4B01
:108770009847002818D0022128001B4B9847641BFB
:10878000A4B202998C466644B6B20022002CCCD02A
:10879000251C4C45D6D96B465D8AD3E700231BE7E1
:1087A000002319E7012317E7002315E7457E0000A2
:1087B00042020020400200203D80000068020020AC
:1087C000F57B00006A0200202C0100204585000096
:1087D000D47C01005C7E0100447D01007D600100CD
:1087E000DD7E000061810000617E000010B5014B5C
:1087F000984710BDC1850000F0B5DE4657464E468D
:108800004546E0B583B004008A46464D80225200BA
:10881000FF212800444B9847444EA379E17909028F
:10882000194332005046424FB8472070000A60702A
:1088300032000E212000B847A073000AE073102216
:10884000210028003B4B9847A379E27912021A4392
:1088500015001035ADB25346002B12D080235B00BB
:108860009D4209D90026102780235B009B466A465B
:10887000D3802C4B994645E051462A4810302D4B69
:108880009847A379E27912021A43103280235B00E1
:108890009A4200DD1A0092B2274B18882149274BD3
:1088A00098478046002833D0A379E0790002184326
:1088B000103080B20221224B9847404603B03CBCA6
:1088C00090469946A246AB46F0BDA4B24B46D81995
:1088D000E21B53469919174B9847174B18882200EB
:1088E0004946164B984780460028E6D002212000D2
:1088F000134B98472D1BADB2E41B3619B6B20027B7
:10890000002DDAD02C1C5D45DFD96B46DC88DCE716
:10891000A379E07900021843103080B20221084B9D
:108920009847CAE72C01002051610100FFFF0000B9
:108930009D7E00003F6101006A020020618100000D
:10894000617E0000F0B5CE46474680B587B0040092
:10895000019115001F0000280CD0002B0AD0354BC8
:108960009847052300280BD0180007B00CBC904690
:108970009946F0BD304B314A31493248324CA0471C
:108980002800103080B2314B98472000304B984778
:10899000060003230028E7D08378C47824021C4310
:1089A000A0462C4B1878102302AA21002A4CA0477D
:1089B00002AB1989019B5A1904238A42D4D802AB0D
:1089C0006A4692889A80DD8042465A818D422CD038
:1089D00002AB9B89013302AA9381204B1C8839008A
:1089E00002A81F4B984701230028BDD0B470240A69
:1089F000F47002AB9A890023642AB5D902AB5A8875
:108A0000184B1A800022184B1A801848184B9847A8
:108A100000230028A8D1154B164A1A61164A5A603D
:108A20009A6000221A7300239EE7002302AA938112
:108A3000D3E7C046457E0000DC7D01007C7E01005E
:108A400096050000447D01007D6001004585000021
:108A50003D80000068020020F57B00006A020020D3
:108A6000F98700004002002042020020000100209F
:108A7000C9B90000ED870000B80B0000F0B583B065
:108A80000C0015001E00002809D0002B07D0104B49
:108A900098470323002808D1180003B0F0BD0D4B00
:108AA0000D4A0E490E480F4CA04762190E4901337A
:108AB0008A42F1D80D4B1F7800962B00220001004E
:108AC00038000B4CA047434243419B00E4E7C046BB
:108AD000B1800000DC7D01008C7E0100EE0500000D
:108AE000447D01007D600100FFFF0000680200205E
:108AF000DD7E000010B584B0002805D00A4B9847F1
:108B0000011E07D104B010BD084B094A09490A48A3
:108B10000A4CA0470A4B187810236A46094CA04714
:108B20006B461889EEE7C046B1800000D07D010099
:108B30009C7E01000B060000447D01007D60010069
:108B400068020020F57B0000F0B585B004000E003F
:108B50001500431E9BB22E4A93421ED880231B0150
:108B600099421AD82B4B984700281DD020002A4B39
:108B70009847864207D0294B1C80294B1E80294BE1
:108B80009847031E15D1002D40D02B003200002144
:108B90002000254CA04703000BE0244B244AAA21C7
:108BA000C9002448244CA047244B9847052300289B
:108BB00002D0180005B0F0BD3000103080B2204B5C
:108BC0009847204B1B78062B19D81F4B1F886B46E4
:108BD0005C8000236A469380D680168153819381FE
:108BE00029006846194B984701230028E1D020004E
:108BF000174B984787703F0AC7700223D9E7154B78
:108C00000B4AAF21C9000B480B4CA0470023D0E70B
:108C1000FEEF0000B1800000F58A00004002002055
:108C200042020020C18500007D8A0000907D010085
:108C3000687E0100447D01007D600100457E0000EA
:108C400045850000600200206A020020F9870000CC
:108C5000CD800000087D010010B5034B9847431EEE
:108C60009841C0B210BDC046B1800000F0B5D646F4
:108C7000474680B587B00F00204B984212D043047E
:108C800015D4C308CF1807231840063B83403A7811
:108C900013433B7001230193019807B00CBC90462D
:108CA0009A46F0BDFE230B70FD3B0193F4E704A947
:108CB000134B984701900028EED004AB9B88984650
:108CC000002BE9D0002402AB9D1D0E4B9A460726CF
:108CD0006100049B9C46614402222800D0472988F9
:108CE000CA08BA18314001238B4011780B43137026
:108CF0000134E4B2A3B24345EAD3CDE70240000019
:108D0000198F00003F61010010B50549054B9847D8
:108D1000041E01D1200010BD0020034B9847F9E745
:108D2000700200206D8C0000698E0000F0B585B0E7
:108D30003E4B1B780133072213403D4A1778380019
:108D40001E003A00DA40D20731D40133DBB20722E9
:108D5000072501242B401E000100D9400C4226D1DA
:108D60000133DBB2013AD2B2002AF3D10124E4008C
:108D7000E41820002F4B9847002824D16946200092
:108D80002D4B9847002838D0029B002B00D09847E5
:108D9000019A6B4659882000284B9847FD231842BA
:108DA0002BD0274B274AEA212748284CA0470122ED
:108DB000B24097431E4A17700021254A11701B4A82
:108DC00013700024D3E7694620001B4B9847002806
:108DD00013D06B465B88002B15D0019B002B12D063
:108DE000029B002B00D09847019B6A4652880021C5
:108DF0002000184CA04700280CD10D4B1B78002BED
:108E00000FD105B0F0BD144B144A3421FF310E4888
:108E10000E4CA047124B114A4221FF310A480B4C1D
:108E2000A04700200F4B9847EBE7C0467102002097
:108E300070020020598C0000BD8E0000498B00009C
:108E4000407F0100887F0100F07E01007D6001000D
:108E50006C02002045890000B47E0100A07F010063
:108E6000B07F0100698E0000034A0123834011781E
:108E70000B4313707047C0467202002070B50D4B53
:108E80001D78002D12D02800EB0710D400230124F8
:108E90000133DBB219000200DA401442F8D001239A
:108EA0008B405D40034B1D70034B984770BD002104
:108EB000F5E7C046720200202D8D0000F0B587B0A6
:108EC000019102AA104B110070CB70C11B680B609E
:108ED0001388834211D00D4B02AA11001C00E0CC74
:108EE000E0C124680C601188814206D01033084923
:108EF0008B42F2D1002007B0F0BD102202A90198E8
:108F0000044B98470120F6E700440000104400009D
:108F1000704400003F61010070B582B00C006B46E8
:108F2000084A694660CA60C1DA880023824202D0DA
:108F3000180002B070BD082269462000024B984715
:108F40000123F5E7004400003F61010010B50278FD
:108F5000084B1A7042785A700A78074C22704A7887
:108F600062701888054B98472088054B9847012068
:108F700010BDC046D82000204C21002011A20000C6
:108F8000FDA10000F0B5C64600B5C6B006000C0055
:108F90009C464C992509230700D001354920404BB8
:108FA0001870002302A803700D33437082700022F2
:108FB0003B4B8F5CD0184770100002AFB84640445E
:108FC0008F5CC7710132082AF3D163466A46D371B8
:108FD000D379334843724246D37063461B041B0E59
:108FE0008372137163461B021B0EC3725371634677
:108FF0001B0E037393710023D37304224273837394
:10900000C4732849284B9847002306A902AA9A5CF2
:109010005A540133102BF9D127001037102F0ADDD5
:10902000102006A9F218103A12780A5401339BB2A4
:109030001800BB42F6DB230010331A00013529016A
:109040008B4207DA06AC0020A05401339BB21A0011
:109050008B42F9DB00220027002D15DD104E120196
:10906000002306A98C189919E25C087842400A701E
:109070000133102BF7D10B4909480B4B98470137A7
:10908000BFB23A00AF42EADB002308480449CA5C99
:10909000C2540133102BFAD146B004BC9046F0BD47
:1090A000E8200020CC7F010089A300002C210020B3
:1090B000F0B5DE4657464E464546E0B58DB0804693
:1090C0000E0014001A0009780D090B0700D00135B5
:1090D000374B5B68009323004046364FB8473178E2
:1090E0008BB22E002D01A94207DA00214246D1544D
:1090F00001339BB2AB42FADB9046012204AB1A70FB
:109100002B4B5868002304AAD218C15C517001335C
:10911000082BF8D104AB5C72220A9A72220CDA7224
:10912000240E1C7304225A7300229A73DA73731C80
:10913000994600239B4603934B46002B2FDD08AC3A
:1091400004AD1D4B9A461D4E17E01A5DCF5C7A4068
:10915000CA540133102B07D00028F6D11A5D674698
:10916000FF5C7A40F254F4E70130E873039F013763
:10917000BBB203939B464B4511DA00235A5D1A5547
:109180000133102BFAD10E492000D047E87B594615
:1091900001390901002341440A4A9446DCE70120D1
:1091A0000DB03CBC90469946A246AB46F0BDC046C9
:1091B000E0200020858F000089A3000014210020FA
:1091C000CC7F01002C2100200E4B1A780E4B1B780F
:1091D00000209A4200D070470A4B5A780A4B5B78BD
:1091E0009A42F8D1074B9A78074B9B789A42F2D172
:1091F000044BD878044BDB78C01A43425841C0B2C4
:10920000E9E7C046142100203C210020F0B5DE46ED
:1092100057464E464546E0B591B0814606910492C8
:1092200005931AAB1B78079309780A090B0700D03E
:1092300001328BB210001201914207DA00214C4634
:10924000E15401339BB29342FADBA146012208AB01
:109250001A700023049C08AAD218E15C51700133F3
:10926000082BF8D108AB059959720A0A9A720A0CB0
:10927000DA720A0E1A7304225A7300229A73DA738E
:10928000431C9A460025002398465346002B2EDDAA
:109290000CAC08AE264B9B46264F43460393A8468C
:1092A00014E01A5DE95C4A40EA540133102B04D003
:1092B0000028F6D11A5DFA54F7E70130F073039DE8
:1092C0000135ABB203939846534510DA00239A5DFB
:1092D0001A550133102BFAD117492000D847F07BDB
:1092E0004246013A120100234A441500E0E7069B7A
:1092F00019780439C9B21970049B0093059B079A29
:1093000048460E4CA04700230D4D0A4C0D48E25C28
:10931000C15C4A40EA540133102BF8D10A4B9847FC
:1093200011B03CBC90469946A246AB46F0BDC04643
:1093300089A3000004210020CC7F0100858F00005C
:10934000142100202C210020C991000010B5002814
:1093500009D10B78192B07D8044A13701800044B55
:109360009847012000E0002010BDC0464E2100209B
:10937000D5A2000030B583B06C4600900191104B2F
:109380009847104D2B0006CC06C30F4B984704009E
:1093900001200E4B98470E4B1C7068680D4B984788
:1093A0000D4B00221A700221FF315A540B495A54B6
:1093B0000B495A5401320B4B1A60012003B030BDE7
:1093C000BDA10000E020002071A30000F1A1000079
:1093D000D51F002095A300005822002002020000A3
:1093E0000303000028210020F0B5DE4657464E4614
:1093F0004546E0B587B003AF041C03900800049114
:1094000015002D0A0592009311AB1B789A46E4B221
:10941000A606F60F0290D3B29C46EDB20022C44BD2
:109420001A70C44B07CF07C3630701D501239C46BD
:10943000082323401A00534253415B421D4003233B
:109440002340012B4DD001229146002B04D09A1EBF
:10945000514251414A00914603AA5289B6480088B8
:10946000904241D0002293460732E0461700083769
:109470006146002900D0971C002D44D00237FAB273
:10948000019224221440202C41D0032B44D003AA63
:1094900071011378202083430B4313700322134080
:1094A000012B41D003AB72011C7820218C43144363
:1094B0001C70E4B2230739D410AB1B78019AD7187B
:1094C0009E4B1F709D4B4A465A70E3439B0740D00A
:1094D0004346002B5FD0002D45D08822974B9A70D1
:1094E00044E003229146B7E79548824207D04022E4
:1094F0004946114389463F3A93460432B5E7002274
:1095000093460732B1E70837FAB20192B9E7043A55
:10951000494611438946B8E70125002600239B46AA
:10952000994607330193B2E70026BBE708234A4672
:109530001A439146834B1A684B4610A90098824FF4
:10954000B84710AB1B780933019AD7187B4B1F70B3
:10955000B8E77A4B80229A707C490A78501C0870D0
:10956000DA7004223EE0C822744B9A70774B1A7866
:10957000511C1970714BDA7003AA917A1971D27A61
:109580005A71630729D402990A786C4B9A714A7808
:10959000DA71082226E0002D0FD0684B8C229A70D9
:1095A0006A490A78501C0870DA7003AA917A197116
:1095B000D27A5A71630710D499E0604BCC229A702A
:1095C00062490A78501C0870DA7003AA917A1971FE
:1095D000D27A5A71630700D485E0584BFF229A7102
:1095E000DA71F73A03A970010B782024A3430343EF
:1095F0000B709B0600D485E0544B1B78013B54490B
:109600000B700121534B19705B46002B09D1531C81
:10961000DBB24A49484804788C540232D2B24078CE
:10962000C854002D00D171E044494B4803788B5455
:10963000931CDBB20132D2B24078885403AA710184
:109640001678202086430E431670320715D5190070
:1096500000223A4E3B4D481CAC5C74540132C1B2FE
:10966000042AF8D11A1DD2B23648016801310160CE
:109670000533DBB200203149885410AA1678002E39
:1096800053D0009AF118C9B22C4D581C1478EC54E0
:109690000132C3B28B42F8D12848304B1A78425479
:1096A0004A1CD2B25C7884548A1CD2B29C7884540E
:1096B0000331C9B2DB784354294B009A1A60294B15
:1096C000129A1A60284B52461A70284B1E70284B6B
:1096D0009847431E9841C0B207B03CBC904699469B
:1096E000A246AB46F0BD4346002B00D04BE700231B
:1096F0001248029CE15C1A1891710133082BF9D1D0
:109700000E226FE70021134B19707DE7194B596842
:1097100014000834E4B2094D531CDBB20878A85495
:1097200001311A009C42F7D188E71900B4E7C0461E
:1097300076020020F82000204C210020D81F0020B5
:10974000FFFF000028210020B1900000D51F00205D
:10975000D41F002073020020D820002014210020F4
:1097600080020020780200207C0200207502002088
:1097700001A30000E0200020044B1B78032B04D839
:109780001A02D3180021024A995470470F00002092
:10979000582200200022044B1A70044B187001322A
:1097A000034B1A707047C046740200202421002029
:1097B0007602002010B50B4A13780133DBB2137028
:1097C000022B04D90320084B9847002010BD01222A
:1097D000064B1A700648074B9847431E9841C0B283
:1097E000F4E7C04674020020959700007302002041
:1097F000D81F002001A30000F0B5C64600B588B010
:10980000FF22CC4B1A70CC4B1B78002B00D054E3BA
:109810000223FF33C84AD35C002B0ED1C74BD35C65
:10982000002B40D1C64BD35C00240322002B05D172
:10983000200008B004BC9046F0BD0122BD4B1A7058
:109840000024032AF4D8100011028918BA4B5B18BF
:109850009D7840242540BB4900240C70CC73DB78F4
:1098600033218B43D9B2882900D12FE11DD9D9B238
:10987000C8296FD0CC2900D1B9E08C2900D1AAE148
:10988000B14B9847AB4B1A7813029A18AA4B9B1806
:109890009B7800249B06CBD507A800230370438048
:1098A000AA4B9847C4E70222C8E7082B00D1E1E1A0
:1098B0008029E5D1A34B19780424214380246442F4
:1098C000214319700121D9739B4C1102881821186A
:1098D0004D791D748979597411028A18D11D09199D
:1098E0005960015D0B391973093212199A60914B55
:1098F0001A7813029A18904B9B189B781B0700D577
:10990000D9E18C4B1878020212188B4B9B1899786E
:1099100007230B40012B00D14EE2002B00D183E244
:10992000022B00D186E2032B00D175E2864B9847CB
:10993000804B1A7813029A187F4B9B189B7800244F
:109940009B0600D474E707A80023037043807F4B75
:1099500098476DE711028918774B5B18DC79FF2C6B
:109960001ED078490E7880235B4233430B70002D64
:1099700000D07DE27349704C0302181823185D7AF9
:109980000D749B7A4B7413029A1813000B331B1936
:109990004B60035D153B0B73133212198A6043E071
:1099A00011028918644B5B181B7AFF2BD9D16549CA
:1099B0000B78042423438024644223430B70002D3E
:1099C00000D064E2D6E7604B98475A4B1A781302EE
:1099D0009A18594B9B189B7800249B0600D427E7C4
:1099E00007A8002303704380584B984720E7554948
:1099F0000C7880235B4223430B70002D33D15149F7
:109A00004D4C130298182318DD7B0D741B7C4B748E
:109A100013029A18130011331B194B60035D1B3B93
:109A20000B73193212198A60424B1A7813029A1872
:109A3000414B9B189B781B0700D462E7414B9B6806
:109A40005F783F021A7817439A78120440490F4012
:109A50001743DB781B063F023F0A1F433D4D00269C
:109A60000024A84641E1110289180731324A8918B9
:109A700039483A4B9847041E15D02E4B1878314A76
:109A80002D4903021B18C818447914748079507446
:109A900018000F3040185060585C19381073173395
:109AA0005B189360C0E7284B9847224B1A78130243
:109AB0009A18214B9B189B789B0600D4B8E607A800
:109AC000002303704380214B9847B1E611028918A7
:109AD000194B5B18DC79FF2C1FD01A4B1E788021A4
:109AE0004942314319700121D973002D38D1190031
:109AF000114C0302181823185D7A0D749B7A4B746D
:109B000013029A1813000B331B194B60035D0F3BB4
:109B10000B730D3212198A60E9E611028918064B9F
:109B20005B181B7AFF2BD8D106490B7804263343E8
:109B30000B70D2E70F000020582200200202000024
:109B400003030000A026002079970000B9EE000072
:109B5000FFFF00FF6826002050220020EDA5000036
:109B600001020918D74B5B181B7AFF2C17D1FF2B6A
:109B700015D1D549D34C0302181823185D790D74FB
:109B80009B794B7413029A18130009331B194B600D
:109B9000035D0D3B0B730B3212198A60A7E6CB49AC
:109BA0000978A14203D1C94949789942E1D0C84B0B
:109BB0009847C84B1A7813029A18C24B9B189B7887
:109BC00000249B0600D433E607A8002303704380DB
:109BD000C14B98472CE6BC4B1C788021494221435D
:109BE00019700121D973002D15D1B749B54C130255
:109BF000981823189D7B0D74DB7B4B7413029A1805
:109C0000130010331B194B60035D153B0B731332AC
:109C100012198A606BE6110289180731A94A89185E
:109C2000AE48AF4B9847041E11D0AA4B1878A64AED
:109C3000A44903021B18C81844791474807950741D
:109C4000585C1338107311335B1893604FE6A04BC8
:109C50009847A04B1A7813029A189A4B9B189B7836
:109C60009B0600D4E4E507A80023037043809A4BC9
:109C70009847DDE511028918924B5B18DB79FF2BC1
:109C80000CD091498F4C03021818035D0A3B0B73EB
:109C900013029A18093212198A6028E611028918EB
:109CA000884B5B181B7AFF2BEBD187490B78042478
:109CB00023430B70E5E7864B9847864B1A781302CF
:109CC0009A18804B9B189B789B0601D40024AFE523
:109CD00007A80023037043807F4B9847F6E70134C1
:109CE000E4B201360A35052C14D0B3009B195B0091
:109CF00043441B7ADB09F2D0734B59682800784B38
:109D000098470028EBD0042C04D8A300754A9B5830
:109D1000BB422DD26C490B7B053BDBB20B738868D1
:109D2000C3185D78704A15709D785570DD78957010
:109D30001B79D3704A680C310530664B1D782B02B5
:109D40005D19604B5B199B7800933B00674DA847FA
:109D500000281FD0042C02D8A400624BE7505A4BB5
:109D60009A6805329A601A7808210A431A70C8E581
:109D7000574B9847574B1A7813029A18514B9B1818
:109D80009B789B06A2D507A8002303704380524B03
:109D900098479BE74E4B98474E4B1A7813029A18F8
:109DA000484B9B189B789B0690D507A8002303700F
:109DB0004380494B984789E7434A13780324A343D8
:109DC0001370414C3F4B02021218D55C9B185A5D30
:109DD000A2735B78637301248B0600D428E504AA80
:109DE0000024547214723E235B421370364B596840
