:10000000E8540020897000008570000085700000B1
:1000100000000000000000000000000000000000E0
:1000200000000000000000000000000085700000DB
:1000300000000000000000008570000085700000D6
:1000400085700000857000003D4D00007148000083
:1000500085700000857000008570000085700000CC
:10006000155800002558000035580000455800007C
:10007000555800006558000085700000857000002C
:1000800085700000596C0000696C000085700000EC
:1000900085700000796C000085700000857000009C
:1000A0008570000085700000E94700008570000041
:1000B0000000000000000000000000000000000040
:1000C0000000000000000000000000000000000030
:1000D0000000000000000000000000000000000020
:1000E0000000000000000000000000000000000010
:1044000006000100A00200200000000000000000E3
:1044100007000100CD260020000000000000000081
:10442000050032007026002000000000000000009F
:104430000400010010000020000000000000000047
:104440000300010011000020000000000000000037
:1044500002000200C426002000000000000000004E
:1044600001000400302100200000000000000000D6
:1044700010B5064C2378002B07D1054B002B02D03A
:10448000044800E000BF0123237010BD8800002015
:10449000000000001C920100084B10B5002B03D057
:1044A0000749084800E000BF07480368002B00D117
:1044B00010BD064B002BFBD09847F9E70000000029
:1044C0008C0000201C9201001C92010000000000E2
:1044D00070B50020084B98470500084CFA21890068
:1044E000A047074B186007492800A047064B1860F3
:1044F0000522064B1A6070BD896900006139010010
:104500000000002040420F000400002010E000E006
:1045100030B5084B1C68084A002580214902013843
:1045200007D3002CFBD05460956013680B42FCD07D
:10453000F5E730BD0400002010E000E030B5084B86
:104540001C68084A002580214902013807D3002C45
:10455000FBD05460956013680B42FCD0F5E730BD8A
:104560000000002010E000E00C4B1B68002B06D17F
:10457000EFF31083002B07D00022094B1A70074A73
:10458000136801331360704772B6BFF35F8F002268
:10459000044B1A700132024B1A70F0E7A40000209D
:1045A000A800002008000020084B1A68013A1A6091
:1045B0001B68002B09D1064B1B78002B05D001226C
:1045C000044B1A70BFF35F8F62B67047A4000020DF
:1045D000A800002008000020F0B5C64600B582B053
:1045E00001AC0125657000239846A3702570210059
:1045F0001320124EB047124F80231B03BB6125705E
:1046000021001220B0478023DB02BB61257021000E
:104610000D20B04780239B017B612570210009207C
:10462000B04780239B007B61434623706570210067
:104630001C20B04702B004BC9046F0BDA14C000065
:104640000028004001230370002343708370C3706F
:1046500003710F2242718371C37103727047026844
:10466000136802210B4313607047032302685371E0
:104670000268D3710268136802218B43136070478C
:1046800070B504000D00D378037121605378437135
:104690001379837113789B029178C9020B43517887
:1046A00009020B43D17889000B43117949010B436F
:1046B00091798903D07940030143107A00030143C3
:1046C00052791204F020000302400A4313431E00F3
:1046D0002B689B0701D42E6070BD2000034B9847C8
:1046E0002E602000024B9847F6E7C0466B4600005C
:1046F0005F46000070B5054CE56980239B012B43A4
:10470000E36101230B60024B984770BD0004004039
:104710008146000070B54379012B05D0002B10D0E5
:10472000022B0DD1082500E00625002310C99A1C94
:1047300092000668B446624454600133AB42F5D33C
:1047400070BD0425F1E7FFFF10B500230268137266
:104750000F4B426813400F4A93420AD00379032B50
:104760000ED00C001034036804C99A638C42FAD14D
:1047700010BD03680A689A6303684A689A63F7E79A
:104780008379023B012BECD803680A689A63EFE750
:10479000FF00FF0003000100002302681372104BAA
:1047A000426813400F4A93420AD00379032B0ED07C
:1047B0000A00103203689B6B08C18A42FAD1704725
:1047C00003689B6B0B6003689B6B4B60F7E7837917
:1047D000023B012BECD803689B6B0B60EFE7C046F4
:1047E000FF00FF000300010010B50C4BDC79E4B2C0
:1047F000E30707D50A4B1B68002B0DD00121074AA0
:10480000D1719847A30707D5054B1B68002B03D030
:104810000221024AD171984710BDC04600340042BF
:10482000AC0000201723002A01D0180070478B002D
:10483000064A9B58002B03D0834205D01D23F4E782
:10484000890088500023F0E70023EEE7E81E0020EF
:104850001723002901D01800704700221F2800D814
:10486000024A0123834013610023F4E7002400403F
:1048700070B50022104B1A70002310491F25104EEE
:104880000D4C0AE00D4908E023780133DBB22370B8
:104890000F2B10D800211F2BF4D92800184001221B
:1048A000824048691042EFD04A619B009B59002B1F
:1048B000EAD09847E8E770BDE41E002000240040DD
:1048C000E81E0020064A137802210B4313700120D2
:1048D00053681942FCD153681842F9D17047C04659
:1048E00000240040064A137802218B4313700120F4
:1048F00053681942FCD153681842F9D17047C04639
:104900000024004010B5124A516980239B000B43DC
:104910005361104A137801210B43137001310120B8
:1049200053681942FCD153681842F9D1094A1378E7
:1049300010210B431370084B19004031002204C3AF
:104940008B42FCD10822054B1A60054B984710BDDD
:104950000004004000240040E81E002000E100E0C8
:10496000C548000000230360436001220272837285
:104970000132C27243727047F0B583B005000C007B
:104980001C4B984701A900234B70CB7023790B7007
:10499000237A8B702078184B984700211F2D00D860
:1049A000164907222A409200E77AA37A002B01D009
:1049B00008231F43EB089B00CB18D8690F269640AD
:1049C000B04397403A000243DA61637A002B0BD17F
:1049D0008A690123AB40DB431B041B0C13408B6132
:1049E000074B984703B0F0BD8A690123AB401343DE
:1049F0008B61F5E7E5480000616B00000024004092
:104A0000C548000010B51E4A936904210B43936109
:104A10001C4B2022FF321A831A7D0523D20701D4B2
:104A2000180010BD03781B02C02292001340417889
:104A3000C901FF220A401343817849001E220A401F
:104A40001343C27892048021C9020A4013430279B9
:104A50001204C02189020A4013430A4A5360936832
:104A60005B035B0F084908249C400C8093684B80D3
:104A700043780B71138BDB05DB0F1B01D0E7C046BE
:104A80000004004000400041B400002030B50400A4
:104A9000254A1088538843438B420BD280229201CF
:104AA000224BCB18934205D9214A1820214BCB1811
:104AB00093420ED8204B5D688022D2022A435A606E
:104AC0002022FF321A831B7DDB0703D41A4B5D6063
:104AD000052030BD452C22D8A300184AD3589F4644
:104AE000154B1B8BDB0503D5134B5D601020F0E7E6
:104AF00089084900104BD96103E0890849000E4B31
:104B0000D961A520000204430B4B1C80190001222F
:104B10000B7D1342FCD0084B5D600020D9E7064BAB
:104B20005D601720D5E7C046B400002000C07FFFBD
:104B3000FF1F00000000C0FF00400041A87E0100F0
:104B4000F8B52F4B1C885B886343834207D22D4EF8
:104B500018252D4BC318B34206D8012600E00026C5
:104B6000631E1825184201D02800F8BD013D94426B
:104B7000FAD3264B1B7D123DDB07F5D5244C234B86
:104B80001C801D0001242B7D2342FCD02024FF34F7
:104B90001E4B1C83002A2CD0012305009D430023BB
:104BA000541EA44609E0CF187F783F023C432C8076
:104BB00002339BB202359A4204D9CC5C6345F2DBE6
:104BC000A4B2F4E70E4B1B790025002BCCD13F2A71
:104BD000CAD8002E06D10022010004200D4B9847B0
:104BE0000500C1E7002201001C200A4B9847050080
:104BF000BAE7034B1B790025002BEAD0B4E7C04687
:104C0000B4000020FF1F00000000C0FF0040004172
:104C100044A5FFFF8D4A000010B51B4A1388528837
:104C20005A43824207D2194C182219494118A1420D
:104C300007D8012100E000219B00013B1822184207
:104C400001D0100010BD134B1B7D133ADB07F8D5C4
:104C5000104B2022FF321A8380084000D8610029BF
:104C60000FD10D4A0B4B1A80190001220B7D134204
:104C7000FCD0084B1A8B1C200240501E824192002F
:104C8000DFE7064AEEE7C046B4000020FF1F000041
:104C90000000C0FF0040004102A500001AA500006E
:104CA00000B583B001AB80221A700A785A704A7836
:104CB0009A708A78DA701900014B984703B000BDEA
:104CC000616B000003681869431E9841C0B27047C9
:104CD00070B504000668084D2000A8470028FBD1E5
:104CE0002379002B04D00020012B00D1B06970BDC6
:104CF000308B80B2FBE7C046C54C000010B502689F
:104D00000A2910D0072911D980235B000C00083C28
:104D1000A340C024A40023401381C38E01228A40F3
:104D20009343C38610BD044B1381F6E701248C40E6
:104D3000FF2323401381F0E70080FFFFF8B5DE4634
:104D400057464E464546E0B52B4B1B689A461E68B3
:104D5000DB8E5246928E1A409046B2897389134078
:104D60001AB2002A08DBFF271F402AD000240123A3
:104D70009946FE339B4614E043465B0507D41F4B20
:104D8000B3813CBC90469946A246AB46F8BD53461B
:104D90001B6B9847F3E75B461D40B5810134082C37
:104DA000EFD023004D46A5402F42F4D04246224189
:104DB00049461142EFD002339B0052469B58984718
:104DC000E9E7DA050AD54346DB0503D480235B0017
:104DD000B381D6E753469B6A9847F7E79B05D0D542
:104DE00043469B0503D480239B00B381C9E7534608
:104DF000DB6A9847F7E7C046281F00200080FFFFC6
:104E000001680722CB691A42FCD17047F0B5D6463B
:104E10004F464646C0B58AB007000E001400396000
:104E200008009C4B9847052800D12BE1050012355E
:104E3000994AD169012383400B43D36109A9237B9C
:104E40000B70EDB22800954B98472800944B98477B
:104E5000207B0021934B984733681C209B0705D586
:104E60000AB01CBC90469946A246F0BD336817387C
:104E7000DB07F5D4142333603B6898461800854B54
:104E800098470500802308AA13700023537001225D
:104E900008A98A70CB70E069266A002800D1AEE0CC
:104EA00008AB1870022308AA5370000CC0B211009E
:104EB0007D4B9847002E00D1A6E008AB1E70022360
:104EC00008AA5370360CF0B21100774B9847A38AAA
:104ED000FB80E38A3B81237E8022002B04D1734B2D
:104EE0009B789B07DB0FDA01A16823690B4313430F
:104EF0002422A25C002A02D08022D2051343A26A97
:104F000013432C22A25C002A03D1802292049142F6
:104F100002D18022120513432D22A25C002A02D066
:104F20008022120413432E22A25C002A02D0802287
:104F3000D203134342461268134342461360802350
:104F40005B0053601235E8B2594B98470790FA233B
:104F50009B0022685A43914663689A46554DA8477C
:104F6000009001914B465800A84702900391208E73
:104F7000A84704900591504F504A514B0098019911
:104F8000B84702000B0004980599B8474D4E00221F
:104F90004D4BB047049005914846A84702000B00CE
:104FA00004980599B84702000B00484D00980199F4
:104FB000A847029A039BB0470022454BA847029A94
:104FC000039B444DA847444B9847050080239B040E
:104FD000A2689A421ED003004020FF2D00D93FE76F
:104FE00000240020FF251D40240625430004FF2344
:104FF0001B04184005434346DD60002030E70021D4
:105000004046364B98474BE701214046334B984783
:10501000060052E7FA26B60053465E43009801990F
:1050200002000B00274CA047009001913000214B5B
:10503000984700222A4BB84702000B0000980199BC
:10504000244CA0470022224B204CA047224B9847DB
:10505000041E0CD031000798224B98470238001BE1
:105060002B00FF2D0CD8FF28BCD94020F8E671009A
:10507000481E079B9C4660441A4B98470138EFE74F
:105080004020EDE6044A136A02210B4313621825FF
:10509000D4E6C0466D57000000040040656A000079
:1050A000F5690000C5550000616B0000002000415B
:1050B000896A0000856801006D5C010095D626E8CC
:1050C0000B2E113EE54D0100000024406D610100F2
:1050D0000000F03F055401009967010011560000DF
:1050E0000000084061390100F8B504000768084E67
:1050F000B04725682000B04783232B752B762B689B
:10510000022293432B602000B04701233B60F8BD8F
:10511000014E000003681A7E920707D502221A7614
:105120005B8B9B074120DB17184070475A8B520757
:1051300006D55968C02292020A435A601820F4E743
:105140000020F2E730B50268002301240225117E19
:1051500021420BD1117E294206D101339BB2018934
:105160009942F4D8122002E0002000E0002030BD77
:1051700010B5046862688023DB02134363606162D8
:10518000024B98470123237610BDC04645510000CD
:10519000F0B5DE4657464E464546E0B583B00600BC
:1051A000894605684C882B681B01DB0F9A464B7AB1
:1051B000002B2BD16B68584A13406B604B461B7A0F
:1051C000002B27D14B461B885B004A46527A92033C
:1051D0001343012213436B623000504B98470190F8
:1051E0005346002B03D04B465B88012B3BD06B68AA
:1051F000494A13406B60019B002B3AD0019803B0E1
:105200003CBC90469946A246AB46F0BD897A444BD9
:105210009847CFE74B461B885B004A46527A920379
:1052200013438022120213436B6230003B4B9847BA
:1052300001906B68384A13406B600028DED1300063
:10524000384B984701900028D8D14B461B881B0A41
:10525000782213435B004A46527A920301210A43A3
:1052600013436B62B8E76A688023DB0213436B6009
:10527000C1E730002B4B984701900028BED1013C7C
:10528000A4B28046284B9B4615E0012C20D030006C
:10529000264B984743465F1CBFB22823EB5C4A4627
:1052A00052684146535430001C4B9847013CA4B20D
:1052B000002815D1B8465C4514D06B8B9B0627D5CA
:1052C000F37A002BE3D05346002BDED1002CDED145
:1052D0006A688023DB0213436B60013CA4B2EAE7F7
:1052E000B8460190B37A002B09D130000F4B984794
:1052F0002823EA5C4B465B6841465A547EE73000FF
:105300000A4B98476A68C0239B0213436B60ECE723
:105310004123019372E7C046FFFFFBFF45510000A8
:105320007151000015510000FFFF0000014E000008
:10533000F0B5DE4657464E464546E0B583B006001A
:105340000F0005684C88324B98477B7A002B1DD1A3
:105350006B68304A13406B603B7A002B1BD03B8854
:105360005B007A7A920313438022120213436B622A
:105370003000294B98470190002813D0019803B0C2
:105380003CBC90469946A246AB46F0BDB97A300087
:10539000224B9847DCE73B885B007A7A9203134301
:1053A0006B62E5E730001E4B9847031E0190E5D184
:1053B000A046002420339946154B9B46164B9A462F
:1053C000444515D06B8B4A4613421DD03000D84758
:1053D0007B681A5D2823EA543000D047002806D1A4
:1053E0006B8B01345B07EBD51E23019300E001902A
:1053F000B37A002BC2D03000054B98476A68C023AF
:105400009B0213436B60B9E741230193B6E7C046A3
:10541000014E0000FFFFFBFF4551000071510000ED
:105420001551000010B501238372C372014B9847D8
:1054300010BDC0469151000010B5002383720133A6
:10544000C372014B984710BD31530000F0B5DE46E2
:1054500057464E464546E0B587B080460491160053
:105460001F000022002300218B463F240120210041
:10547000009601975C4603944446059413E020246B
:10548000641A0500E540A84614E0009C019D121B2B
:10549000AB415C464D462C43A346039C45462C43FA
:1054A0000394013925D3202464420C19E7D4050064
:1054B000A540A84604008C40A14692185B41140008
:1054C0001D00059E4F463E40B446049E47463E4062
:1054D000B246664657463E4303D006002643320096
:1054E0002B00009C019D9D42DBD8CED19442D8D8A0
:1054F000CBE7039B5846190007B03CBC9046994641
:10550000A246AB46F0BD10B54908402300248142B5
:1055100002D2180010BD1C00091A631C9BB28842FD
:10552000F9D94023FF2CF4D814800023F1E7FFFFC2
:10553000F0B583B00F00160008AA117804004C43A0
:105540004022BC4202D9100003B0F0BD002B14D1A0
:10555000020008000021194CA04701003A00002376
:105560000020174CA04700220123121A8B41120C75
:105570001B041A4332800022E5E70022012BF9D1F7
:105580000A00002300210D4CA04702000B000092EE
:105590000193380000210A4CA047050080239B019D
:1055A00040229842CFD8790FF800009A019BA0477B
:1055B000EA00821AD2B252032A43DBE77D3D0100A2
:1055C0004D54000010B582B004000E4B1B78002B28
:1055D00007D0002905D10B4B5B78834210D01D20EA
:1055E0000CE001A90C701120074B98471120074BC4
:1055F0009847044B5C7001221A70002002B010BD65
:105600000020FBE7BC000020656A0000F56900008F
:105610003C4B984232D00AD93B4B98424ED03B4B40
:10562000984255D03A4B984238D000207047842396
:10563000DB0598420CD0374B9842F6D1012917D0A0
:10564000002957D0022915D0032915D00020EDE7F5
:10565000012907D000294BD0022905D0032905D004
:105660000020E3E72C48E1E72C48DFE72C48DDE7A2
:105670002C48DBE72C48D9E72C48D7E7012907D08D
:10568000002939D0022905D0032905D00020CDE713
:105690002748CBE72748C9E72748C7E7012907D0AC
:1056A00000292BD0022905D0032905D00020BDE711
:1056B0002248BBE72248B9E72248B7E7022903D0CE
:1056C000032903D00020B1E71F48AFE71F48ADE72B
:1056D000012907D0002913D0022905D0032905D0BC
:1056E0000020A3E71A48A1E71A489FE71A489DE758
:1056F0001A489BE7032099E7194897E7194895E767
:10570000194893E7000800420010004200040043DB
:10571000000C0042000400420300050003000600E4
:10572000030007000300010003001E0003001F0028
:105730000300090003000A0003000B00030011002E
:10574000030012000300130003000E0003000F000B
:1057500003001700030018000300190003000400F1
:1057600003000800030010000300160030B587B0E6
:105770000B4B6A4632CB32C232CB32C2009B8342E1
:105780000BD001239A0069465258824206D0013359
:10579000062BF7D1002007B030BD0023D8B2FAE7BE
:1057A000C07F01007047FFFFF0B50A4B1B78002B4C
:1057B0000CD1094F094E0A4D0024DE515A191460CC
:1057C0000433182BF9D10122024B1A708000024BCE
:1057D000C150F0BDBE000020C0000020A557000051
:1057E0002C1F002000B583B008236A4613700133D4
:1057F0005370013393700133D3700133137101334C
:105800005371034B98476B46185603B000BDC04612
:105810006D57000010B5024B1B680020984710BD63
:10582000C000002010B5024B5B680120984710BDF6
:10583000C000002010B5024B9B680220984710BDA5
:10584000C000002010B5024BDB680320984710BD54
:10585000C000002010B5024B1B690420984710BD02
:10586000C000002010B5024B5B690520984710BDB1
:10587000C0000020F0B5D6464F464646C0B58AB0B7
:1058800006000F00140031600B689B070AD40B68F8
:105890000520DB0700D4AFE00AB01CBC9046994657
:1058A000A246F0BD936A0593D36A0693136B0793E0
:1058B000536B089300250AE03800B64B98470EE07A
:1058C0000F231840814530D10135042D31D0E9B284
:1058D000AB0002AA0C201218D0580028ECD0431CB0
:1058E000F2D001040B0C9946000CC3B29C46002375
:1058F000020605D463465B09DB01A74A9046434490
:105900001F2260460240981840300078824680206E
:105910005146C907D6D552089B1830331878C0B203
:105920006346DB07CCD50009CCE7002333601C209D
:10593000B2E71120994B984722780025012A16D00A
:105940002178002927D13B68E27F1204A07F02431F
:105950001C209A42A0D1A369A28B0430205C0028AD
:1059600001D040200243082003431D4314E004AA51
:105970000100A0698A4B984703001720002B00D034
:105980008AE73B7BDBB204AA127805309A4200D04A
:1059900082E70C35D4E700226368A0680343E0681F
:1059A00003432B43207C0243607C002801D08020ED
:1059B0000343A07C002802D0802080020243E07CC8
:1059C000002802D0802080000243207D002802D0E1
:1059D000802080010243386802252B43834203D094
:1059E000002333601C2057E77B689342F8D1717124
:1059F000237CB37100204FE708006A4B98470528C5
:105A000000D1BFE0030012336749CD690122824013
:105A10002A43CA6109A92425625D0A70DBB2019399
:105A20001800624B98470198614B9847605D0021D0
:105A3000604B98472378012B20D02378002B03D18B
:105A40003B68082213433B603368984604AB8022CE
:105A50001A7000225A7001219970DA702378002B95
:105A600001D104AB9A70A36A0593E36A0693236B92
:105A70000793636B0893002705AD11E03B680C2288
:105A800013433B60D9E74046424B98470DE004A9D9
:105A90000870000CC0B2484B98470137042F07D05C
:105AA000F9B2BB0058590028EDD0431CEFD1F4E700
:105AB00023787371237CB371A37CF371237D3372DC
:105AC000002202ABDA802378012B14D02378002B3C
:105AD00029D1A069A28B43465B6AE17F0904A57FB7
:105AE00029431943434659622023E35C002B1CD011
:105AF00040231A4319E030682A4B98471230C0B24D
:105B0000264B9847010002AB9A1DA069244B984789
:105B100003001720002B00D0BEE602AB06331B7833
:105B200042461373D2E7002200206368A1680B434A
:105B3000E1680B430343217C0A43617C002903D1C4
:105B40001E498978890701D580210B43A17C002952
:105B500002D0802189020A43E17C002902D0802101
:105B600089000A43217D002902D0802189010A434E
:105B7000414609680B4341460B604B681A434A6033
:105B8000002089E6084A136A02210B431362182396
:105B900040E7C0461156000000280040896A000016
:105BA000075500006D57000000040040656A0000C2
:105BB000F5690000C5550000616B00000020004140
:105BC00010B544791523012C01D0180010BD047ABA
:105BD0000023002CF9D1002A58D04B78002B44D058
:105BE00003681B7EDB0710D40A78D1090023002943
:105BF00004D15309DB012E498C4663441F21114017
:105C000001228A409A610523DFE70A78D40900233C
:105C1000002C04D15309DB01254CA44663441F2406
:105C200014400122A2405A6103681A7ED20701D5AE
:105C30008A789A62C2790023002AC6D102680421B8
:105C4000137E0B42FCD0117E00234907BDD5538B38
:105C50005B0701D5042353838379012B02D0936A18
:105C60000023B2E7936A0023AFE70A78D109002343
:105C7000002904D15309DB010D498C4663441F21DF
:105C8000114001228A405A6100239EE70A78D10917
:105C90000023002904D15309DB0105498C466344E4
:105CA0001F21114001228A409A6100238DE7C046DE
:105CB00000280040F0B5DE4657464E464546E0B562
:105CC00091B005000C00160029600800C64B9847EB
:105CD000020005280DD007001237030021680520B7
:105CE000C90709D511B03CBC90469946A246AB46BF
:105CF000F0BD18270123F1E7216817308907F1D497
:105D0000052A49D0B949C86901229A4013000343C2
:105D1000CB610FA92D239846F35C0B70FFB23800BE
:105D2000B34B98473800B34B98474346F05C00218B
:105D3000B14B9847F37A6B712423F35CAB71252345
:105D4000F35CEB71F37E2B72337F6B722B6898469A
:105D50001800A54B9847052826D0123000220E23A4
:105D600006A98C4663441A80328A02928023DB01A2
:105D70009A4200D1ABE019D9C023DB01029A9A42C2
:105D800000D19FE080231B029A4200D027E1032329
:105D900006930023079312E09449086A043A9A4054
:105DA000130003430B62B4E71820D7E780239B015D
:105DB0009A4200D013E1102306930F3B07933368F8
:105DC0000593F368039373690493337E9B462623FC
:105DD000F35C9A4673689946002B00D19FE08023BC
:105DE0005B05994504D12723F35C002B00D184E0A7
:105DF000737E002B02D0B37E424693732A68029FC3
:105E0000D369002BFCD10E3306AA944663441B8849
:105E100042469381059B039A1343049A13434A46CF
:105E200013431F435B461B021F4353465B071F433D
:105E30002723F35C002B01D104331F43737E9B02A5
:105E4000327F52021343727F120213432422B25C48
:105E5000520413432522B25C12041343B17AF27A3E
:105E6000114319433389FF2B7DD0802252041743FD
:105E700019432C23F35C002B03D1604B9B789B07C9
:105E800001D580231F432A68D369002BFCD14346E8
:105E900059602A68D369002BFCD143461F600EABC2
:105EA00080221A7000225A70DA709A70336B0A934B
:105EB000736B0B93B36B0C93F36B02930D930027EF
:105EC0000AAE5EE008230693073B079377E7336843
:105ED0000593F368039373690493337E9B462623EB
:105EE000F35C9A4673689946002B14D080235B05B7
:105EF000994500D177E7002020E0336A1F00C0B247
:105F00003F4B984701000E2206AB9C466244380086
:105F10003C4B984712E0082306930023079327235E
:105F2000F35C002B0ED0069B0093079B0E2206A964
:105F30008C466244B16A306A334FB847002800D0BB
:105F4000D0E655E7336A1F00C0B22D4B98470100D9
:105F5000069B0093079B0E2206A8844662443800E5
:105F6000294FB847EAE7F37E002B82D08023DB0479
:105F70001F437EE72000254B984707E00137042F99
:105F80000DD0F9B2BB0098590028F3D0431CF5D0CE
:105F90000EA90870000CC0B21D4B9847EEE7002315
:105FA000EB602B616B61AB61EB612B62AB626B628F
:105FB0000022EB85AB853033EA540133EA540133D8
:105FC000EA540133EA542868074B98470400114902
:105FD000114B9847A400114BE550002082E6102396
:105FE000069300230793EAE66D5700000004004083
:105FF000656A0000F5690000C555000000200041F9
:10600000896A000007550000315500001156000054
:10601000616B00009D620000A95700002C1F00204A
:10602000C2791C23002A01D118007047C28D92B298
:10603000173B002AF8D10368DA69002AFCD11985D8
:1060400002211A7E0A42FCD00023EDE782791C234C
:10605000002A01D118007047828D92B2173B002AA6
:10606000F8D10268107E4007F4D5D369002BFCD12B
:10607000538BDBB298061DD0980703D502235383B8
:106080001833E7E7580703D5042353831A33E1E7AE
:10609000D80703D5012353831233DBE7D80603D592
:1060A000102353833233D5E79B0603D52023538334
:1060B0002133CFE7138D0B800023CBE7F0B5CE461D
:1060C000474680B583B0050001911720002A04D10E
:1060D00003B00CBC90469946F0BDEB790530002B1F
:1060E000F6D02C68E369002BFCD1013A93B29946B3
:1060F000002601271F4B984611E0731C9BB2019AA2
:10610000915D6A79012A17D089B21E0028001A4BC6
:1061100098474B46013B9BB29946434513D0237E9B
:106120003B42EAD1134B227E3A42E6D1012B19D0F1
:10613000013B002BF7D1E0E70236B6B2019AD35CFF
:106140001B021943E2E7237E9B070DD4094B022172
:10615000227E0A420AD1012B0AD0013B002BF7D143
:106160000020B5E71220B3E70020B1E70020AFE739
:106170001220ADE7FFFF000021600000F0B5D64619
:1061800000B584B0040001911720002A03D104B0A7
:1061900004BC9246F0BDA3790530002BF7D02668E9
:1061A000013A93B29A460025042719E0002302AA77
:1061B000D380911D2000154B98470028E7D1691C1A
:1061C00089B202ABDB88019A53556279012A14D057
:1061D0000D005346013B9BB29A460D4B9A45D6D0D3
:1061E000337E3B42E2D10A4B327E3A42DED1012B72
:1061F00009D0013B002BF7D1D8E70235ADB21B0A1D
:10620000019A5354E5E71220C1E7C0464D600000F3
:10621000FFFF0000F8B504000D00160007680F4BE3
:106220009847A38D9BB2002B03D00D4B98470520B8
:10623000F8BDA6850A4B9847656205223223E254D1
:106240002E3BBB75237A002B01D02023BB75637ACC
:106250000020002BECD00823BB75E9E7694500005E
:10626000A9450000931C9B00C318596030210123ED
:1062700093401A00435C13434354704710B51723EF
:10628000002A01D1180010BD84790533002CF9D003
:10629000014B98470300F5E715620000F8B5800050
:1062A000624BC5582C68E369002BFCD1237EA67D88
:1062B0001E403023EB5C3122AF5C1F40F30722D538
:1062C000EB8D9BB2002B1CD0AA6A1378DBB2511C59
:1062D000A962697901290ED09BB2DB05DB0D23850C
:1062E000EB8D013B9BB2EB85002B0CD10133237569
:1062F0000133A37507E0517809020B430232AA6209
:10630000EBE701232375B30706D50223237500228B
:106310003133EA54FB071AD4730765D5AB8D9BB2B2
:10632000002B5FD0638BDBB21A0714D43F221340DB
:10633000002B34D09A0711D51A223223EA54303B6D
:1063400063837B0750D528006B6998474CE0280091
:10635000EB689847E0E737221340E9E75A0705D58D
:106360001E223223EA542E3B6383EAE7DA0705D57F
:1063700013223223EA54313B6383E2E7DA0605D580
:1063800042223223EA54223B6383DAE720221A4274
:10639000D7D021323223EA54123B6383D1E7238DD5
:1063A000DB05DB0DDAB2696A0A706A6A511C696240
:1063B0006979012910D0AB8D013B9BB2AB85002BD5
:1063C00012D10433237500222E33EA54BB070BD5B8
:1063D00028002B69984707E01B0A53706B6A01334A
:1063E0006B62E8E704232375F30604D510232375B5
:1063F0002376FB060ED4B30604D52023237523761B
:106400003B070BD4330704D5082323752376BB063B
:1064100008D4F8BD2800EB699847ECE72800AB6981
:106420009847EFE72B6A28009847F2E72C1F0020D7
:1064300010B5082803D880001C4B1B589F4600202D
:1064400032E01B4B18692FE01A4B187D0007800FB4
:10645000431C1948584327E0154B586924E0144B56
:106460001B6800209B071FD5124980225200CB6871
:106470001342FCD00E4B1B685B0701D40F4813E09E
:1064800000200F4B98470A4B9B681B041B0C58437A
:106490000AE02823074AD35C00209B0704D5044B5D
:1064A000D86801E08020000210BDC046D87F0100FE
:1064B000D8000020000C004000093D00006CDC0208
:1064C000896A000070B50B4C237D85784678027888
:1064D0000321114089000C2293430B430B3A3240B5
:1064E000920140218B431343ED017F2213402B4344
:1064F000237570BD000C0040F0B5D6464F464646A9
:10650000C0B5204B9A465B69457801784C424C41B6
:10651000A14681788C46C1788846467A077A847A83
:10652000406819494861012148468000042293438C
:10653000034340460840C00004329343034360468F
:10654000084000010832934303430F40BF0140203D
:1065500083433B430E40F601403083433343793855
:1065600005402D02094803402B43214009030848F8
:1065700003400B43524653611CBC90469946A246C9
:10658000F0BDC04600100040D8000020FFF8FFFF1B
:10659000FFEFFFFF082803D88000294B1B589F46B8
:1065A00017204BE0274A137D02210B43137500206F
:1065B00044E0254A936902210B43936100203DE0AA
:1065C000204A138A02210B431382002036E01E4A20
:1065D000536902210B43536100202FE01B490B68D4
:1065E000022213430B60174B1A831900FE32CB684B
:1065F0001342FCD0154A9168124B19625268DA6155
:1066000000221A8319000132FF32CB681342FCD0FA
:106610000E4B1B689BB20B4A138300200EE0094906
:1066200028228B5C022003438B5408003821263A31
:10663000435C1342FCD1002000E000207047C046BC
:10664000FC7F0100000C004000100040D80000203A
:10665000082832D880001A4B1B589F46194A137DD0
:1066600002218B43137500207047174A936902215A
:106670008B4393610020F7E7124A138A02218B4370
:1066800013820020F0E7104A536902218B435361C3
:106690000020E9E70D4B1A6802218A431A601B6843
:1066A0009BB2084A13830020DEE7064928228B5C50
:1066B000022083438B540020D6E71720D4E7C0463E
:1066C00020800100000C004000100040D800002095
:1066D000F0B5D6464F464646C0B588B08022520037
:1066E000564B9A60FD3A564B9A60564A53681E21A3
:1066F0008B431A390B4353608023DB059B78022BB5
:106700000FD08023DB059B785BB2002B09DB802355
:10671000DB0501229A7101329A701A009379002BDD
:10672000FCD005A80023037080221202426083700F
:106730000122C27003728372033242704372424B71
:1067400098470520414B984741490122CB681A429E
:10675000FCD03F4A536980210B43536102A90125B4
:106760004D6000244C700C724C7203230B7000209F
:10677000384B98470620384B984701A8447005705D
:106780008470364B98470620304B98472B4910228F
:10679000CB681A42FCD002AC012666600025657009
:1067A00006239A4623702572657221000020294B2A
:1067B000984698472A4B984766606570657205232E
:1067C0002370267221000120C0470120254B9946E5
:1067D0009847254FBE717E713E7166606570534665
:1067E00023702572657221000020C0470020C84731
:1067F00000201E4B98473979C9B21D4B98471D4B55
:10680000984214D88023DB059B78002B0FD080237F
:10681000DB059B785BB2002B09DB8023DB050122C3
:106820009A7100229A701A009379002BFCD008B05C
:106830001CBC90469946A246F0BDC046000C0040E4
:106840000014004000400041F9640000956500001C
:10685000001000409D68000051660000C564000003
:10686000796800004969000000040040896900005F
:1068700061390100001BB700064A536940210B43F0
:1068800053610122044B1A7019000B781342FCD19A
:106890007047C046000400400018004070B5040076
:1068A0000D784B78002B02D08023DB001D434B7A00
:1068B000002B02D080231B011D43486801280FD9FB
:1068C000431E184231D102282DD902230022013261
:1068D0005B009842FBD880235B011D4312041543E3
:1068E0000B7A002B02D080239B011D430426A64077
:1068F0001149124A4B6813401E42FBD1104B984776
:10690000A4000D4B9C466444226A80235B001A401D
:106910002A4322626146094A4B6813401E42FBD15A
:10692000084B984770BD0022D5E7000480239B00E8
:1069300018430543D4E7C04600180040FC07000098
:1069400069450000A945000010B5040004228240FA
:1069500009480A4943680B401A42FBD1084B984743
:10696000A400054B9C466444226A80235B001343C9
:106970002362044B984710BD00180040FC0700003C
:1069800069450000A9450000F8B5040004228240D2
:106990001248134943680B401A42FBD1114B9847E8
:1069A0000E4F0834A400E0590007000F0E4B984723
:1069B0000600E559ED04ED0FE459240C0B4B984704
:1069C000002D07D1012C07D921003000084B984732
:1069D000060001E00134E6403000F8BD0018004038
:1069E000FC0700006945000031640000A945000073
:1069F0006139010010B50400094B9847A000094B0C
:106A00009C4660448022835840210B438350403190
:106A1000403A43581A42FCD0034B984710BDC04639
:106A20006945000000180040A945000010B50400A9
:106A3000094B9847A000094B9C466044802283582C
:106A400040218B4383504031403A43581A42FCD195
:106A5000034B984710BDC046694500000018004030
:106A6000A945000070B504000D00054B98472A7831
:106A70000F2313402034A400024AA35070BDC04627
:106A80002D6A00000018004010B50400064B98471E
:106A90002034A400054BE4582407240F044B9847E6
:106AA0002000044B984710BD6945000000180040C5
:106AB000A94500008969000030B5D378002B35D195
:106AC0001378802B29D01B0680246402234354783A
:106AD0000225AC4306D19478002C20D18024A40256
:106AE000234341605478013C012C1CD90D042D0C2A
:106AF000A024E4052C431C4384620D0CD0242406FE
:106B00002C431C438462D478002C22D15B031CD517
:106B10009378012B1ED0416117E00023D7E7C024F2
:106B2000E4022343DDE70D4C2340DFE741600C0422
:106B3000240CA023DB05234383620C0CD0231B060B
:106B400023438362D378002B03D15378013B012B7D
:106B500002D930BD8161F8E78160FAE7FFFFFBFFF2
:106B600010B50A00C1090023002904D14309DB0143
:106B700005498C4663441F242040012181401800B0
:106B8000024B984710BDC04600280040B96A00007B
:106B90007047FFFF10B5054B9847054B9847054BCD
:106BA0009847054B9847054B984710BDD1660000A4
:106BB000D9450000916B000005490000916B000071
:106BC000931C9B001950022A09D0032A0CD00123E0
:106BD00093401A00037E1343037600207047037E20
:106BE000102213430376F8E7037E20221343037633
:106BF000F3E7FFFF70B58000164BC45823689D7AF9
:106C0000227E637E13401D40EB0706D4AB070BD4F6
:106C1000EB0610D4AB0615D470BD2000A3689847CE
:106C2000012322689372F1E72000E368984702236A
:106C300022689372ECE720002369984710232268AA
:106C40009372E7E7200063699847236820229A72CD
:106C5000E2E7C046441F002010B50020014B9847D2
:106C600010BDC046F56B000010B50120014B9847E0
:106C700010BDC046F56B000010B50220014B9847CF
:106C800010BDC046F56B000030B587B001A90C4BB4
:106C90000A0032CB32C212CB12C2019B98420BD0F7
:106CA000012301A99A005258824206D00133052BD4
:106CB000F8D1002007B030BD0023D8B2FAE7C046B3
:106CC0006C800100F0B5C64600B58EB004000D0022
:106CD00016000800AE4B984780460CAB1B221A707A
:106CE0005A7001329A70DA7001321A7102A9A94BF6
:106CF00014330A0083CB83C283CB83C283CB83C28A
:106D00001B6813600023A360E36023616361237643
:106D1000637643469A00A04BD45025603423F35C3D
:106D2000A376F378082B08D023712B680520DB07A6
:106D300008D50EB004BC9046F0BD17204246D207DD
:106D4000F7D4F1E7EB7A17309B07F2D42B689B0757
:106D5000EFD4337C002B12D1337F002B1BD1434661
:106D60005A0002A9531C9B0058584346DB005B584D
:106D7000D9B2042923D88B008849CB589F4601A952
:106D800001238B700022CA70327E0A704B70307DF6
:106D9000834B9847E0E701A901238B700022CA705A
:106DA0002432B21812780A704B701F33F318187817
:106DB0007B4B9847D3E77B494B6918434861F3788D
:106DC000082B00D186E033786A4613700CAB42463C
:106DD0009F5C69463800744B98473800734B98475E
:106DE000F378F2791343B2881343727A002A02D0FF
:106DF000802252021343B27A002A02D080229202E9
:106E00001343F27A002A02D0802252031343327BCA
:106E1000002A02D080229203134371788901B2784C
:106E2000D2011143194322681369002BFCD1296058
:106E300022681369002BFCD1B3792B73717B4B1E35
:106E400099418900B37B002B01D0012319432268AB
:106E50001369002BFCD1FF332B71002904D0226869
:106E60001369002BFCD16971337A6B732268136943
:106E7000002BFCD12379042B59D0082B74D0172078
:106E8000002B00D055E71369002BFCD1338DAB826A
:106E900022681369002BFCD1738DAB8322681369C0
:106EA000002BFCD1B38DEB83002042E73D498B6979
:106EB0001843886183E73B49CB691843C8617EE783
:106EC00038490B6A1843086279E7364B596A084318
:106ED000586274E743460133042B00DD73E702ABCD
:106EE000D11C8900C95802329200D358DAB2042A60
:106EF00000D968E793002E4AD3589F46294A536920
:106F0000194351615FE7274A9369194391615AE731
:106F1000244AD3691943D16155E7224A136A1943B8
:106F2000116250E71F4B5A6A114359624BE71369CC
:106F3000002BFCD12833F35C2B7522681369002BDE
:106F4000FCD12933F35CEB7622681369002BFCD16A
:106F50002A33F35C2B7722681369002BFCD12B3387
:106F6000F35C6B770020E4E61369002BFCD1B36A75
:106F70006B6122681369002BFCD1F36AEB61226814
:106F80001369002BFCD1336B2B620020D1E6C04685
:106F9000896C00006C800100441F002044800100C7
:106FA000616B000000040040656A0000F5690000A4
:106FB0005880010002681369002BFCD1137101682D
:106FC0000B69002BFCD18033537153795BB2002BDA
:106FD000FBDB02681369002BFCD10379042B05D07D
:106FE000082B09D00020002B03D07047107DC0B2C1
:106FF000FBE7908A80B2F8E75069F6E710B50468BD
:107000002369002BFCD10379042B06D0082B28D050
:10701000002B13D01723180010BD17230129FAD80D
:10702000837E002B05D0D2B2611830310A70002364
:10703000F1E7D2B2641822770023ECE71723012985
:10704000E9D8837E002B05D092B2183149000A534B
:107050000023E0E792B20C3149006418A2800023BB
:10706000D9E717230129D6D8837E002B05D1063115
:107070008900641862600023CDE70C3189000A5151
:107080000023C8E7FEE7FFFF10B51A4A1A4B9A42E1
:1070900011D01A00194B9A420DD2194A03339B1A88
:1070A0009B0801339B000022134812498C588450DE
:1070B00004329A42FAD1134A134B9A420AD2D3436A
:1070C00011495B1803218B4304339B18002102C232
:1070D0009342FCD10D4AFF210D4B8B4393600D4A27
:1070E00053687F390B4353600B4B98470B4B9847C2
:1070F000FEE7C0461C920100000000208400002032
:107100000400002088000020E434002000ED00E0AE
:1071100000000000004000415D6B0100017A0000AA
:10712000F0B5C64600B50C00904600280FD1002AE5
:1071300011DD8F18094E0A4D306821002B689847E1
:107140000134BC42F8D1404604BC9046F0BD012356
:107150005B429846F7E78046F5E7C046601F00208F
:10716000581F0020F0B5C64600B50E0015000138C6
:10717000022810D8002A11D000240C4B98460C4F3E
:1071800043461868315D3B689847002808DB0134A6
:10719000A542F5D106E00124644203E0140001E0B9
:1071A00001246442200004BC9046F0BD601F002012
:1071B0005C1F00200300064A1268002A04D0044A1B
:1071C0001068C318136070470249014A1160F6E75E
:1071D000F0000020E8540020012040427047802346
:1071E0009B014B60002070470120704700207047D2
:1071F00000BEFEE7704701204042704730B5531E85
:10720000DBB2002A0BD00024C5182A785200224392
:10721000CA542C78E409013BDBB2FF2BF4D130BD1A
:1072200010B584B00400110010226846044B984742
:1072300069462000034B9847002004B010BDC046AB
:10724000C36B010011D1000010B5014B984710BD70
:107250002172000000207047F0B5D6464F464646E2
:10726000C0B5A4B001900F00029103929A462CABD6
:107270001C8808AE102200213000644DA8478723E7
:10728000F3731022002104A8A847019A390004A82A
:107290005F4B984704AB1B787F2B2DD8102220A979
:1072A00004A85C4B984720AB1B787F2B34D8102266
:1072B0001CA920A8574B984723000F331D11AAB2D1
:1072C0009046002A38D0220738D14246013A1201AE
:1072D00096B2514F1F40BE4254DA330010A920AA83
:1072E000981B80B25446E45C155C6C400C5401332E
:1072F0009BB2BB42F4DB45E0102220A904A8454B19
:107300009847002320AA08A9985C5D5C68409854BF
:107310000133102BF8D1C6E710221CA920A83D4B41
:10732000984700231CAA08A9985C5D5C68409854A3
:107330000133102BF8D1BFE7012398460F2320001B
:10734000984300230F2214400CA9002780265044A4
:1073500005E0944209D05F540133102B07D09AB254
:107360009442F6D9C25C5A54F6E75E54F4E700231F
:1073700010A80CA91CAA5C5C9D5C6C401C540133D9
:10738000102BF8D11022002118A8204B9847012378
:107390005B424344994600200027002B1ADD14ADC0
:1073A00018AC1E4E000100235044C25C195D4A40D7
:1073B0005A550133102BF8D1102229002000B04774
:1073C000019A02992000124B98470137BFB238004A
:1073D0004F45E7DB002314AC18A810A91A5C5D5CCC
:1073E0006A401A550133102BF8D1019A029914A85A
:1073F000074B9847102214A90398084B9847002080
:1074000024B01CBC90469946A246F0BDD56B010045
:1074100021720000FD710000F0FF0F00C36B01003E
:1074200010B50E480E4CA0470E48A0470E48A04786
:107430000E48A0470E48A0470E48A0470E48A04758
:107440000E48A0470E48A0470E480F4CA0470F48D3
:10745000A0470F48A0470F48A04710BD4881010032
:107460007D710100B8810100F081010018820100E6
:10747000388201005482010094820100D082010010
:107480000C830100548301009972010058830100AC
:107490007C8301009C83010070B50400002909D0A1
:1074A00009480A4DA84721000948A84709480A4B3E
:1074B000984770BD0948054DA84721000448A847D2
:1074C0000448054B9847F4E7E08001007D71010016
:1074D000DC800100E084010099720100BC800100A1
:1074E0007047FFFFF8B52A4B1B781B0726D4284BA3
:1074F0001B789B0727D01C212648274B9847244CF4
:10750000617B2648264B984723785B0620D40321CD
:107510002448214B98471E4B1B7B002B0AD000248C
:107520001B4D214EAB68185DB0470134E4B22B7B94
:10753000A342F7D81D481E4B9847F8BD09211D48A6
:10754000154B9847D3E71A211B48134B9847D6E7AA
:1075500007211A48104B98470D4B1B7807247F2BA7
:1075600009D80B4F164E0E4D7B68195D3000A847A9
:10757000013CF9D2CBE7064E73685978104D2800CC
:10758000074CA047736819782800A047BFE7C0469A
:1075900058290020C0830100F1C50000F8830100D4
:1075A0007D7101000C8401001DC60000E084010013
:1075B00099720100B4830100DC83010000840100A2
:1075C000088401007047FFFF70B505000448054CB2
:1075D000A04729000448A0470448054B984770BDC0
:1075E000008101007D710100DC8001001881010033
:1075F0009972010010B50248024B984710BDC04671
:10760000A88001009972010010B5104B1B6A1B067F
:107610000ED50F4B1B780020002B00D010BD01228F
:107620000B4B1A700B4B98470B4B18600120F5E77A
:10763000084B9847084B1968084B9847084B9842E5
:1076400002D90022024B1A700020E7E70028004010
:10765000641F002091C30000681F0020F1C30000D8
:10766000FF3F000010B50520034B9847034B1878E7
:10767000034B984710BDC04649A000000001002000
:1076800041D8000010B514000A0001000548064B5F
:107690009847064B1878064B98472000054B9847AB
:1076A00010BDC046508501007D7101000001002021
:1076B00041D800000DC2000070B586B0060001225E
:1076C000524216236B441A801E4D28681E4B984761
:1076D00010201E4CA04728601020A047002824D06E
:1076E00000221B4B1A700024164B194D1A68167095
:1076F000621CD2B2065529780131C9B22970140032
:107700000029F3D013490B785C1C0C7012490291CC
:1077100001210191009303001531694402200F4CAF
:10772000A047002803D10E4B984706B070BD0D4B03
:107730001878002300930C4B00220C490C4CA047F6
:10774000F3E7C046FC0000200DC2000051C100005C
:107750006D1F0020F700002085760000C9AE0000F4
:10776000F57500000001002065760000404B4C00DC
:1077700029D5000000B583B00C4B9847002803D0F2
:107780000B4B1B78002B01D003B000BD6B46D81DFE
:10779000EE230370074B9847EE20074B9847402293
:1077A000064B9A613F3A024B1A70EDE709760000EA
:1077B000F800002099E30000B9760000002800409E
:1077C00000B583B00F2807D8062801D2042808D8AE
:1077D000074B984703B000BD03001F33DBB20C2BEF
:1077E000F6D96B46D81DAA230370024B9847F1E7E0
:1077F000B9760000B1E3000010B582B06B46DC1D25
:10780000D87101003548364B984723783F2219003C
:107810009143802935D15033DAB20F2A2DD8930005
:10782000304AD3589F4680222F4B1A706B46D81D82
:107830002E4B98472E482A4B98476B46D81D2D4B08
:10784000984702B010BD00222B4B1A7040322B4BD0
:107850005A616B46D81D254B98472948204B9847BD
:10786000EBE728481E4B9847EBE76B46D81D1F4BAC
:107870009847A0221C4B1A70DFE7AA20224B98479A
:10788000DFE7AA2B11D04029DBD1732B15D07C2B3D
:1078900018D0722BD5D1144B19706B46D81D134BD1
:1078A00098471A480E4B9847CBE7194B1B68002B9B
:1078B000C7D01878144B9847C3E76B46D81D0B4BBD
:1078C0009847BEE7A022084B1A706B46D81D074B9D
:1078D00098471048024B9847B3E7C046848401009C
:1078E0007D71010010840100F600002099E3000082
:1078F000A4840100B1E30000F8000020002800404B
:10790000C4840100E4840100B97600001085010000
:10791000FC0000202C85010010B5114B1A8843880B
:107920009A4205D08278C1780E480F4B984710BD17
:107930000E4B9B6818780E4B98470E4B98470E4B92
:1079400018780E4B19780131C9B219700C4B984751
:10795000802212030B4BDA610B4B9847E7E7C046D6
:10796000C4260020508401007D71010058290020A8
:10797000F9770000E5740000F5000020F400002015
:10798000C575000000280040E174000000B583B018
:1079900001A900230B7001224A708B700720024B53
:1079A000984703B000BDC046A14C000000B583B0AD
:1079B00001A901234B7000228A700B700620024B34
:1079C000984703B000BDC046A14C000010B5024B63
:1079D0009847002010BDC046ED7D000010B5064B55
:1079E0009847C31D054A013819781170013B0132CF
:1079F0008342F9D110BDC046D5DF0000140000203D
:107A000070B5184B9847184B9847184B9847184B28
:107A100098470122174B1A70BFF35F8F62B6164B5F
:107A20009847164B9847164B9847164B9847002097
:107A3000154B9847154B98470620154B9847154B03
:107A40001870154B9847154B9847154B9847154B91
:107A500098470620144B9847144D154CA847A0474B
:107A6000FCE7C046956B0000D144000051E30000E4
:107A70008DE3000008000020A5C40000DD790000AF
:107A80008DD400002174000089E100007996000087
:107A900041940000A0020020B97B0000C5DA00007C
:107AA0008D790000AD79000019950000D5DA00004D
:107AB000ED7D000010B5040001000648064B984714
:107AC000002C01D0062C04D1044B19780448024B39
:107AD000984710BD788501007D71010011000020DC
:107AE00098850100F0B5DE4657464E464546E0B55E
:107AF00083B0030001908B46013B994640D400249B
:107B000000239846244B9A464B4600931FE00920D9
:107B1000224EB0474B46997B214C2000214DA8476F
:107B20002148A8474B4659892000A8470920B0475B
:107B30004B4619782000A8471C48174B98474346E6
:107B40000133DBB298461C00009B984518DC1848AE
:107B5000D047611C1248134B984709200F4B984798
:107B600043461B015B4499461C0008341F000C4E21
:107B70000C4D21783000A847013CA742F9D1C6E757
:107B800001990C48074B984703B03CBC9046994676
:107B9000A246AB46F0BDC04699720100B17101002A
:107BA000F88301007D710100A8860100E0840100D6
:107BB00074860100AC860100F0B587B00400694806
:107BC000694B9847002C36D000210020674B98471E
:107BD000674B9847674B9847002200230492059310
:107BE000654E0832310004A8644DA8470400012204
:107BF0005242D317049205930932310004A8A847D2
:107C0000002801D0002C08D15B4C260008365C4DC2
:107C1000A84720700134B442FAD15748594B9847CD
:107C2000594B984759485A4B98475A485A4B984786
:107C3000012007B0F0BD80221203584B9A61002149
:107C400000204A4B98470A246C44012323700120EA
:107C5000534B9847FF27277021000420514EB0470F
:107C600021785148514CA0470B256D442F702900B5
:107C70000820B04729784E48A04703AD07232B7052
:107C8000290016204B4EB04729784B48A0470D25B8
:107C90006D4429000720B04729784848A047344B55
:107CA0009847344B98470022002304920593324EA4
:107CB0000832310004A8314DA84704000122524285
:107CC000D317049205930932310004A8A84700286D
:107CD00039D0002C37D028482A4B98470020384B01
:107CE0009847384C20780021374B9847374A012174
:107CF00049420520364B984721000020354B9847D4
:107D000000282AD00E226A4401235B4213802D4BA7
:107D10001878314B009300230021304CA047FF28F6
:107D200004D0284B18780121274B9847FF202C4B73
:107D3000984780221203194B5A61134B98472948E0
:107D4000154B98476EE70C4C260008360C4DA8479B
:107D500020700134B442FAD1BDE71A4B1878224B97
:107D60009847CFE71979000079B400002DB00000E2
:107D700025AC0000AD72010014000020A56B0100CD
:107D80000973010049AC0000E1740000000100200B
:107D9000F5D40000608601009972010000280040BF
:107DA000D9AA000041E60000CC8501007D710100E8
:107DB000EC85010021AB000004860100188601005B
:107DC00049B400000D00002099740000E57A00001D
:107DD000D9BF0000FDAF0000B57A0000E5BD00008E
:107DE00075B1000048860100C975000010B5054B4B
:107DF0009847054B9847012204490548054B984789
:107E000010BDC046EDB5000075770000A41F00202E
:107E1000701F00207D620000F0B5C64600B584B03A
:107E200014001F00294BCB1840031D18002F1AD037
:107E3000274B5A1E95421CD87A1993421FD3C91951
:107E400080239B01994220D8224B98463E1C102F3C
:107E500000D91026B6B2320029006846C047002E6D
:107E600028D000231FE01C4B1C4AD9211C481D4C64
:107E7000A0471D4B194ADA2119481A4CA0471B4B41
:107E8000164ADB211648174CA047194B134ADC2130
:107E90001348144CA047FF21914212D10133DBB2A9
:107EA0009AB2964206D96A46D25C002CF3D0217869
:107EB0000134F1E7BF1BBFB2AD19002FC6D10120BD
:107EC00000E0002004B004BC9046F0BD00040000B7
:107ED00000440000C36B0100D886010060880100E7
:107EE000E8860100016B01002C8701004887010032
:107EF0007C87010010B50B4AFF231A4206D10A4BBA
:107F00000A498C466344934206D110BD084B094A86
:107F100059210948094CA047094B064A5D210648EA
:107F2000064CA047000400000044000000C0FFFF12
:107F3000AC8701001C880100E8860100016B01008C
:107F4000DC87010070B51500440313480818241895
:107F5000124A501E84420DD8E018824210D3C9182C
:107F600080229201914211D81A00210028000C4B66
:107F7000984770BD0B4B0C4A72210C480C4CA04723
:107F80000C4B094A73210948094CA0470A4B064A81
:107F900074210648064CA04700040000004400007D
:107FA000C36B01002C87010028880100E8860100CE
:107FB000016B0100488701007C870100F0B5DE46B7
:107FC00057464E464546E0B593B001929A46464C18
:107FD0000C1940032518002B47D0444B5A1E9542DC
:107FE00049D85246521993424BD3D3465144802329
:107FF0009B0199424BD83E4B1B68002B00D0984701
:108000003F272F40EC1B4026F61B5E4500DD564601
:10801000B3B29B464022FF2102A8364B98473B0053
:1080200002AA9446634400933604370C3A0001993F
:108030001800314B9847314B9847314E402202A9E6
:108040002000B0470528F9D02E4B984753465A4692
:108050009E1AB6B2EC19019B9946B944002E3BD04A
:10806000244B9B46244B984631E0274B274A8A21D4
:108070002748284CA047284B244A8B212448254CCC
:10808000A047264B214A8C212148224CA047244B53
:108090001E4A8D211E481F4CA0479FB24022FF213F
:1080A00002A8D8473A0049460098C047134B984762
:1080B000134D402202A92000A8470528F9D0114BF2
:1080C0009847F61BB6B2E419B944002E04D0331C0D
:1080D000402EE2D94023E0E713B03CBC90469946DD
:1080E000A246AB46F0BDC0460004000000440000BC
:1080F00004010020D56B0100C36B0100694500003D
:10810000414B0000A9450000D886010038880100D5
:10811000E8860100016B01002C87010048870100FF
:108120007C87010070B544030C482418FF239C434E
:108130000B4B013B80229201A6189C4207D8094DA7
:108140002000A8470134FF34B442F9D170BD064B7A
:10815000064AC2210648074CA047C046000400005A
:1081600000440000194C00002C87010048880100E1
:10817000E8860100016B010010B513000022014CDC
:10818000A04710BD197E000010B5014CA04710BDDE
:10819000197E000010B5054B1B68002B04D09847D2
:1081A00001235840C0B210BD0020FCE77802002037
:1081B000012909D0002902D002290DD070470A4BAD
:1081C0001A8880181880F9E7074A13880F33C018F7
:1081D0000F2398431080F1E7034A13883F33C018F8
:1081E0003F2398431080E9E77E02002030B5002944
:1081F00019D0FF2413E02300150A6B401D096B40C2
:1082000012025A401D036A405B015A4092B20300B9
:108210005D1EAB41C018013989B2002903D0002886
:10822000E9D00378E8E7100030BDFFFFF0B5DE4687
:10823000574680B589B0019002919346109A002A62
:108240000DD092469A445B449DB25E46029C01204A
:10825000AB453ED0224F002C08D1002039E000224F
:108260009246F0E704AB5C89002C31D0102304AABD
:1082700021000198B84704AB9A88AA42F2D2DB8861
:10828000D3189BB2B342EDD9AB4201D21E00E9E74D
:10829000A91A89B2B24215D904AB5B8903930B00CA
:1082A000ED1AADB25246002A08D010340919D21A7C
:1082B0009246C91A89B20198094CA047AE420DD026
:1082C000039CC8E7AB1B9BB25E46029A0392E7E7AA
:1082D000002009B00CBC92469B46F0BD0120F8E797
:1082E000457F0000F0B5DE46474680B587B0049074
:1082F00005919579D3791B021D43177953791B0298
:108300001F432C0A64B2002C2FDB1C4B03931C4B25
:10831000984611E0002D2AD01A4B00932B003A000A
:1083200005990498184EB047002820D0290015E080
:10833000013C64B2631C1AD0002CEBD0013DFF3D20
:10834000ADB2104B009380235B003A00059904986E
:108350000D4EB0470028EBD0802149007F18BFB2F6
:10836000039A0848C0470390E2E7044B039303983D
:1083700007B00CBC90469B46F0BDC046FFFF000016
:10838000ED810000380100202D82000070B5164BF1
:108390001C78002C26D0154B1B88834216D0012355
:1083A000124EDAB294421BD91D00591C9A00B25ADF
:1083B000824201D00B00F4E79B000C48C018AD00CE
:1083C0000A4B5D196B88002B03D070BD0748002550
:1083D000F5E7074B074A8C21FF310748074CA047B8
:1083E0000020F2E70020F0E7740200205402002091
:1083F000DC880100C8890100F8880100016B0100D8
:1084000010B5054B9847002804D08378C078000247
:10841000184310BD0020FCE78D83000010B5040058
:108420000E4B984700280BD10D4B1B78072B0ED80D
:10843000591C0B4A11700B489B001C52C01810BDF0
:10844000094B0A4ACC21490009480A4CA0470A4B6B
:10845000064A9A21FF310648064CA0478D8300004A
:10846000740200205402002084880100D889010091
:10847000F8880100016B0100A088010010B50B4BCA
:10848000984700280BD00A4B19780139C9B21970E6
:108490008900084B59180422074B984710BD074B19
:1084A000074AD32149000748074CA0478D830000A5
:1084B0007402002054020020C36B0100C088010038
:1084C000E8890100F8880100016B010010B5054B37
:1084D0009847002800D010BD034B1878034B9847ED
:1084E000F9E7C046958100000E00002025810000BC
:1084F00010B5084C2078084B9847207880229201CC
:108500000021064B9847002803D080225200044BDC
:108510001A8010BD7C0200202581000079810000B6
:108520007E020020F0B583B001900D001600074FC9
:10853000387813000A000199054CA04738783300B9
:108540002A000199034CA04703B0F0BD7C02002033
:10855000BD7F00008981000010B586B001AC4123C9
:10856000A3701333E370013B2371053B6371283320
:10857000A371443BE3710390C0430490084B1B88F4
:108580002382084A10216B46981D074B984720808C
:10859000122221000020054B984706B010BDC046AE
:1085A00076020020FFFF0000ED810000258500001D
:1085B000F8B504000D00214A1388CB189BB2138034
:1085C000FF2B2ED91E4B1A88801880256D00AA1A01
:1085D0001C491D4B98471D4B18882A0021001C4B35
:1085E0009847051E27D0002180204000194B98474E
:1085F000134B188800221A80104B1E88013EFF3E44
:10860000B6B21E80002E16D080214900091A89B208
:108610000C4B5918320020000B4B9847084B1E801A
:1086200009E0074E3788C0190A000649064B9847EB
:10863000ED19358001252800F8BDC0463401002021
:108640000801002038010020C36B01007E020020D9
:1086500025850000B1810000F0B5DE4657464E4644
:108660004546E0B5D5B07B487B4B984700237B4A15
:1086700013807B4A13807B4A13807B4A13807B4B99
:108680001B781F00039312230FAA00213800784C97
:10869000A047119B0993754C2500260008E0337014
:1086A000724B1B78BB420BD0724B984700280DD100
:1086B00023780133DBB2012BF1D900232B70EFE7D4
:1086C0006D4B6E4A6E496F486F4CA0476F4B1B78DD
:1086D000002B6AD0002306930133FF3399466A4684
:1086E000D3826B4B10330893069B07939F00694B13
:1086F0009C4667447B881D00049310230BAA290025
:10870000039880465A4CA0470BAE0023B3803489AF
:10871000F4807381B3811034A4B232002900404642
:108720005D4B984730805D4A0E210BA85C4B984703
:10873000F081574D4A46FF2128005A4B98472B009D
:1087400007CE07C332681A60574B1B88454A128808
:108750009B187B804C4504D9002610234C4A904638
:1087600068E00BAB1B89089A0092002204990398D9
:108770004E4EB047002863D0079B9D00454B5D19C6
:10878000494B1B88374A12889B186B80210014A81C
:10879000474B9847002853D0069B0133DBB21A00A1
:1087A00006933A4B1B7893429ED82F4B1A88002A87
:1087B00006D03D4B188814A93E4B9847041E40D064
:1087C000294B188800213C4B9847374B1A883B4B64
:1087D0001A80099801383A4B9847041E31D002217B
:1087E0000020354B9847374B6A46127B1A70364D3E
:1087F0002800194B98472800344B984721E0ADB228
:10880000EF1ABAB29346434400931300320004991E
:108810000398264FB847002812D0290014A8244BEB
:10882000984700280CD0641BA4B25E44B6B2002363
:10883000002CB1D0251C4C45E1D96A46D58ADEE72B
:108840000024200055B03CBC90469946A246AB4659
:10885000F0BDC0462001002005C300004C020020EE
:108860004E02002008010020340100207C0200207C
:10887000457F0000F18400007C880100048A01002B
:10888000D5030000F8880100016B0100740200208C
:108890003801002054020020E5820000FFFF0000A4
:1088A000ED810000D56B01007E0200202D820000CA
:1088B000B185000025850000B1810000760200200E
:1088C000598500000E0000203802002071C300000E
:1088D00010B5074B9847002800D010BD054B9847AE
:1088E000054B064A2C21FF310548064CA047C046DF
:1088F00095810000598600007C880100B089010044
:10890000F8880100016B010010B5124B1A88802312
:108910009B019B1A9BB2834203D30F4A93420AD90D
:1089200010BD0E4B98470028FAD10D4B0D4A0E4949
:108930000E480F4CA0470F480F4B98470028EFD127
:108940000C4B0E4A1A610E4A5A609A6000221A7342
:10895000E6E7C0467E0200200F08000059860000AE
:108960007C880100148A01004E040000F888010090
:10897000016B01002001002045C30000D1880000E8
:1089800010270000F0B5DE4657464E464546E0B596
:108990008BB0774B98470523002807D018000BB001
:1089A0003CBC90469946A246AB46F0BD714B188838
:1089B000002846D1704B1B88002B00D1D0E06E4BB5
:1089C00018886E4B98478346002800D1CAE0827809
:1089D000C3781B02134319000393694B18781023C3
:1089E00006AA684CA047634B1A88002A2ED0664B13
:1089F0001B88059306AB1B8906A90A81191C9342A3
:108A000000D9111C8BB206AA002191801089D08058
:108A1000518191811C001034A4B25C4961CA61C1CA
:108A200012680A6080225200944239D9002610232D
:108A300080225200914669464A82514A92461A0063
:108A400088E0103080B2524B9847B8E706AB1889DF
:108A5000103080B24E4B9847474B1888474B984789
:108A60008346002815D08278C3781B02134319006F
:108A7000039306AC424B187810232200414DA847BF
:108A8000414B1B88059323893A4A1288002ABAD0A1
:108A9000B2E7404B404A9121C9004048404CA047B2
:108AA000374A1078394A10320092002203993D4C1F
:108AB000A0470123002800D170E7344906AB0A0023
:108AC000180070C870C200681060DA88103292B264
:108AD0002D4B1888344B98470023002800D15DE7C0
:108AE00006ABD888103080B20221304B9847002363
:108AF000214A13801F4A13805B46059999700B0A1F
:108B00005A46D370002349E7ADB2AF1ABBB2190081
:108B1000534618781D4B9B18009302910B003200AE
:108B20000399204FB84700281ED0174B18882A00F9
:108B300016491D4B9847002818D0022128001B4BCE
:108B40009847641BA4B202998C466644B6B20022D0
:108B5000002CCCD0251C4C45D6D96B465D8AD3E77A
:108B600000231BE7002319E7012317E7002315E77C
:108B7000958100004E0200204C0200208D830000F1
:108B80007C020020457F00007E020020380100208A
:108B9000098900006C8801002C8A0100F888010016
:108BA000016B01002D82000025850000B1810000CD
:108BB00010B5014B984710BD85890000F0B5DE4621
:108BC00057464E464546E0B583B004008A46464DBA
:108BD00080225200FF212800444B9847444EA3793D
:108BE000E1790902194332005046424FB8472070DC
:108BF000000A607032000E212000B847A073000AFE
:108C0000E0731022210028003B4B9847A379E279BA
:108C100012021A4315001035ADB25346002B12D084
:108C200080235B009D4209D90026102780235B002A
:108C30009B466A46D3802C4B994645E051462A48CC
:108C400010302D4B9847A379E27912021A43103263
:108C500080235B009A4200DD1A0092B2274B1888ED
:108C60002149274B98478046002833D0A379E079E3
:108C700000021843103080B20221224B9847404630
:108C800003B03CBC90469946A246AB46F0BDA4B2A8
:108C90004B46D819E21B53469919174B9847174B67
:108CA000188822004946164B984780460028E6D08F
:108CB00002212000134B98472D1BADB2E41B36193F
:108CC000B6B20027002DDAD02C1C5D45DFD96B46EB
:108CD000DC88DCE7A379E07900021843103080B229
:108CE0000221084B9847CAE738010020D56B0100E4
:108CF000FFFF0000ED810000C36B01007E02002039
:108D000025850000B1810000F0B5CE46474680B50C
:108D100091B00022B34B1A70002401235B429946A4
:108D2000FF27B14E12230BAA00212000B0470D9D52
:108D30000E9B01936B4001331DD00134E4B2022C31
:108D4000F0D1FF2F57D0A94B1F704346012B00D104
:108D50007BE04346022B6AD180225200A44B1A804A
:108D6000122306AA002138009F4CA047A04DA14B1A
:108D700098462E000FE102AB26229B181B78412B50
:108D8000DBD102AB01329B181B78542BD5D102AB3F
:108D900001329B181B78532BCFD102AB01329B18A9
:108DA0001B784E2BC9D102AB01329B181B78762B56
:108DB000C3D102AB01329B181B78312B06D102AB19
:108DC0009B8C002BB9D1012398460FE0322BB4D1F4
:108DD000894A1021262002AB9C466044874B984765
:108DE00002AB9B8C8342A8D1022398464D45A4D266
:108DF000A9462700A1E700227C4B1A70804C814EC7
:108E0000814D06E0794A13780133DBB21370012BF0
:108E100015D8A0470028F5D001235B4233800220FB
:108E20004042A8470028EDD000226E4B1A70012264
:108E3000764B1A7011B00CBC90469946F0BD744B3D
:108E4000744A75497548764CA0471022684B1A80C1
:108E50001021664E644D694F72E006AB1B88002BF3
:108E600007D006ABD888103080B20121614B9847FB
:108E700061E006AB5C8820006A4B9847002810D060
:108E80005B4B1A7882705B78C37006AB1B89002B32
:108E90000BD006ABD888103080B20121554B9847D3
:108EA00049E02000604B9847EAE720005F4B984775
:108EB000EFE74F4B19884D4B187802AA5C4B984747
:108EC00002AB1B88834207D002ABD888103080B237
:108ED0002100484B98475EE002AB5F883800514B59
:108EE0009847002810D0424B1A7882705B78C37084
:108EF00002AB1B89002B0BD002ABD888103080B29C
:108F000021003C4B984746E03800474B9847EAE73A
:108F10003800464B9847EFE706ABDC89364A0C2110
:108F2000122002AB9C466044B847844295D0012190
:108F30001020304B98472E4B19883E4B994212D83F
:108F400006AC307810232200A8472378FF2BE3D10A
:108F500006AB1F2102AA944661445A78FF2ADBD14E
:108F600001338B42F9D1344B9847002800D05EE79B
:108F7000274B324A32492948294CA04702ABDF89A6
:108F80001D4A0E2118001D4B9847874291D02100A1
:108F90001020184B98472B88264A934200D946E761
:108FA00006AA128A14498A4202D000249A4203D89F
:108FB00002210020C047022431880C4B187810236E
:108FC00002AA094FB84702AB1B78FF2BD6D102ABE0
:108FD0000F219C4661445A78FF2ACFD101338B423E
:108FE000F9D124E774020020457F00007C020020B4
:108FF0007E020020B1810000FFFF0000ED81000033
:10900000F184000076020020598500005002002003
:109010007C880100388A01002B050000F8880100D7
:10902000016B01008D8300001D8400007D84000021
:10903000E5820000FF1F000059860000F88901004A
:109040003603000010B5084B1B78002B08D0074BE7
:10905000074A1A61074A5A609A6000221A7310BDC3
:10906000054B9847F3E7C046500200203802002025
:10907000CD840000581B0000098D0000F0B5CE46DD
:10908000474680B587B00400019115001F000028F5
:109090000CD0002B0AD0354B9847052300280BD065
:1090A000180007B00CBC90469946F0BD304B314AD1
:1090B00031493248324CA0472800103080B2314B41
:1090C00098472000304B9847060003230028E7D03C
:1090D0008378C47824021C43A0462C4B18781023B4
:1090E00002AA21002A4CA04702AB1989019B5A19F8
:1090F00004238A42D4D802AB6A4692889A80DD80E3
:1091000042465A818D422CD002AB9B89013302AA80
:109110009381204B1C88390002A81F4B98470123DC
:109120000028BDD0B470240AF47002AB9A890023E1
:10913000642AB5D902AB5A88184B1A800022184B02
:109140001A801848184B984700230028A8D1154BBF
:10915000164A1A61164A5A609A6000221A7300234E
:109160009EE7002302AA9381D3E7C04695810000C1
:10917000908901005C8A010096050000F8880100D2
:10918000016B0100098900008D8300007C02002032
:10919000457F00007E020020BD8B00004C020020B5
:1091A0004E0200200C01002045C30000B18B0000DE
:1091B000B80B0000F0B583B00C0015001E000028AD
:1091C00009D0002B07D0104B98470323002808D163
:1091D000180003B0F0BD0D4B0D4A0E490E480F4C60
:1091E000A04762190E4901338A42F1D80D4B1F780E
:1091F00000962B002200010038000B4CA047434290
:1092000043419B00E4E7C0460184000090890100CF
:109210006C8A0100EE050000F8880100016B010076
:10922000FFFF00007C0200202D82000010B584B0FA
:10923000002805D00A4B9847011E07D104B010BD85
:10924000084B094A09490A480A4CA0470A4B1878B2
:1092500010236A46094CA0476B461889EEE7C046C2
:1092600001840000848901007C8A01000B06000053
:10927000F8880100016B01007C020020457F00009E
:10928000F0B585B004000E001500431E9BB22E4AB7
:1092900093421ED880231B0199421AD82B4B984722
:1092A00000281DD020002A4B9847864207D0294B22
:1092B0001C80294B1E80294B9847031E15D1002D79
:1092C00040D02B00320000212000254CA047030095
:1092D0000BE0244B244AAA21C9002448244CA0476F
:1092E000244B98470523002802D0180005B0F0BD94
:1092F0003000103080B2204B9847204B1B78072B52
:1093000019D81F4B1F886B465C8000236A469380E8
:10931000D68016815381938129006846194B98475E
:1093200001230028E1D02000174B984787703F0A9F
:10933000C7700223D9E7154B0B4AAF21C9000B4870
:109340000B4CA0470023D0E7FEEF00000184000093
:109350002D9200004C0200204E0200208589000062
:10936000B591000044890100488A0100F888010095
:10937000016B010095810000098900007402002042
:109380007E020020BD8B00001D840000A08801002B
:1093900010B5034B9847431E9841C0B210BDC0465C
:1093A00001840000F0B5D646474680B587B00F006F
:1093B000204B984212D0430415D4C308CF1807237A
:1093C0001840063B83403A7813433B7001230193D6
:1093D000019807B00CBC90469A46F0BDFE230B7076
:1093E000FD3B0193F4E704A9134B98470190002833
:1093F000EED004AB9B889846002BE9D0002402AB4A
:109400009D1D0E4B9A4607266100049B9C466144B5
:1094100002222800D0472988CA08BA1831400123FF
:109420008B4011780B4313700134E4B2A3B243456F
:10943000EAD3CDE7024000007D970000C36B010036
:10944000F0B5D646474680B589B007A900230B7012
:10945000274B9847061E43D00024264F264B9A469A
:10946000264B984610E0264B264A5621FF312648C7
:10947000264CA047264B234AB32149002248234CBF
:10948000A0470134082C2BD007AB1B78E340DB0747
:10949000F7D5A5B203A92800B84700281FD003AB11
:1094A0005B88002BDFD0049B002BDCD0059B002BBE
:1094B00000D098472800D047019003AB049A598800
:1094C0002800C047022811D00028D3D103AB5A8806
:1094D0000499019B28000F4DA8470028D1D10026F0
:1094E000300009B00CBC90469A46F0BD0026F7E764
:1094F000A5930000E19600002D92000081920000EB
:10950000948A0100908B0100D08A0100016B010058
:10951000208B01003D97000010B50549054B984789
:10952000041E01D1200010BD0020034B9847F9E72D
:1095300084020020A59300008D960000F0B585B050
:109540003E4B1B780133072213403D4A1778380001
:109550001E003A00DA40D20731D40133DBB20722D1
:10956000072501242B401E000100D9400C4226D1C2
:109570000133DBB2013AD2B2002AF3D10124E40074
:10958000E41820002F4B9847002824D1694620007A
:109590002D4B9847002838D0029B002B00D09847CD
:1095A000019A6B4659882000284B9847FD231842A2
:1095B0002BD0274B274AEA212748284CA0470122D5
:1095C000B24097431E4A17700021254A11701B4A6A
:1095D00013700024D3E7694620001B4B98470028EE
:1095E00013D06B465B88002B15D0019B002B12D04B
:1095F000029B002B00D09847019B6A4652880021AD
:109600002000184CA04700280CD10D4B1B78002BD4
:109610000FD105B0F0BD144B144A3421FF310E4870
:109620000E4CA047124B114A4221FF310A480B4C05
:10963000A04700200F4B9847EBE7C046850200206B
:109640008402002091930000E196000081920000C6
:10965000208B0100688B0100D08A0100016B0100A2
:10966000800200207D900000948A0100808B010020
:10967000A08B01008D96000010B5024B9847024B5D
:10968000984710BDF57E000045900000034A012375
:10969000834011780B4313707047C0468602002048
:1096A00070B50D4B1D78002D12D02800EB0710D49B
:1096B000002301240133DBB219000200DA40144216
:1096C000F8D001238B405D40034B1D70034B98473E
:1096D00070BD0021F5E7C046860200203D950000E0
:1096E000F0B587B0019102AA104B110070CB70C188
:1096F0001B680B601388834211D00D4B02AA110026
:109700001C00E0CCE0C124680C601188814206D0C6
:10971000103308498B42F2D1002007B0F0BD10226F
:1097200002A90198044B98470120F6E70044000085
:109730001044000080440000C36B010010B584B0E9
:109740009A4208D06946084B9847002803D06B46D8
:109750001B7BDB0702D5012004B010BD034B044A7C
:1097600077210448044CA047E1960000CC8B01000F
:10977000BC8B0100F88B0100016B010070B582B059
:109780000C006B46084A694660CA60C1DA8800234B
:10979000824202D0180002B070BD08226946200043
:1097A000024B98470123F5E770440000C36B0100AA
:1097B00010B50278084B1A7042785A700A78074C34
:1097C00022704A7862701888054B98472088054BAC
:1097D0009847012010BDC046E02000205421002001
:1097E000C5AA0000B1AA0000F0B5C64600B5C6B0D3
:1097F00006000C009C464C992509230700D0013532
:109800004920404B1870002302A803700D334370A9
:10981000827000223B4B8F5CD0184770100002AF63
:10982000B84640448F5CC7710132082AF3D16346C1
:109830006A46D371D379334843724246D370634644
:109840001B041B0E8372137163461B021B0EC37233
:10985000537163461B0E037393710023D373042269
:1098600042738373C4732849284B9847002306A981
:1098700002AA9A5C5A540133102BF9D127001037F1
:10988000102F0ADD102006A9F218103A12780A5497
:1098900001339BB21800BB42F6DB230010331A00E1
:1098A000013529018B4207DA06AC0020A0540133B0
:1098B0009BB21A008B42F9DB00220027002D15DD38
:1098C000104E1201002306A98C189919E25C087841
:1098D00042400A700133102BF7D10B4909480B4B5A
:1098E00098470137BFB23A00AF42EADB002308488D
:1098F0000449CA5CC2540133102BFAD146B004BCEF
:109900009046F0BDF02000204C8C01003DAC0000E2
:1099100034210020F0B5DE4657464E464546E0B5B8
:109920008DB080460E0014001A0009780D090B074F
:1099300000D00135374B5B68009323004046364F1B
:10994000B84731788BB22E002D01A94207DA0021E9
:109950004246D15401339BB2AB42FADB904601221E
:1099600004AB1A702B4B5868002304AAD218C15CB0
:1099700051700133082BF8D104AB5C72220A9A7241
:10998000220CDA72240E1C7304225A7300229A737A
:10999000DA73731C994600239B4603934B46002BB6
:1099A0002FDD08AC04AD1D4B9A461D4E17E01A5D25
:1099B000CF5C7A40CA540133102B07D00028F6D16F
:1099C0001A5D6746FF5C7A40F254F4E70130E873B1
:1099D000039F0137BBB203939B464B4511DA00232B
:1099E0005A5D1A550133102BFAD10E492000D04789
:1099F000E87B594601390901002341440A4A94464B
:109A0000DCE701200DB03CBC90469946A246AB462F
:109A1000F0BDC046E8200020E99700003DAC000002
:109A20001C2100204C8C0100342100200E4B1A78A0
:109A30000E4B1B7800209A4200D070470A4B5A7890
:109A40000A4B5B789A42F8D1074B9A78074B9B7880
:109A50009A42F2D1044BD878044BDB78C01A4342C7
:109A60005841C0B2E9E7C0461C2100204421002033
:109A7000F0B5DE4657464E464546E0B591B08146C4
:109A80000691049205931AAB1B78079309780A098B
:109A90000B0700D001328BB210001201914207DA9D
:109AA00000214C46E15401339BB29342FADBA146BC
:109AB000012208AB1A700023049C08AAD218E15CAA
:109AC00051700133082BF8D108AB059959720A0A75
:109AD0009A720A0CDA720A0E1A7304225A7300225E
:109AE0009A73DA73431C9A4600250023984653461E
:109AF000002B2EDD0CAC08AE264B9B46264F434672
:109B00000393A84614E01A5DE95C4A40EA54013325
:109B1000102B04D00028F6D11A5DFA54F7E7013073
:109B2000F073039D0135ABB203939846534510DAA9
:109B300000239A5D1A550133102BFAD117492000E2
:109B4000D847F07B4246013A120100234A441500EF
:109B5000E0E7069B19780439C9B21970049B009399
:109B6000059B079A48460E4CA04700230D4D0A4C12
:109B70000D48E25CC15C4A40EA540133102BF8D135
:109B80000A4B984711B03CBC90469946A246AB465A
:109B9000F0BDC0463DAC00000C2100204C8C010003
:109BA000E99700001C210020342100202D9A00009C
:109BB00010B5002809D10B78192B07D8044A137067
:109BC0001800044B9847012000E0002010BDC0465B
:109BD0005621002089AB000070B582B06C46009021
:109BE00001911C4B98471C4D2B006A4603CA03C3C6
:109BF0001A4B984706000120194B9847194B1E70C5
:109C00006868194B9847194B00221A700221FF31DE
:109C10005A5417495A5417495A5423785B070AD49F
:109C2000154C002323600120144B98470123236027
:109C3000012002B070BD0120114B98470E4A1368F5
:109C40008021C9008C466344136001200B4B984768
:109C5000EEE7C04671AA0000E820002025AC000015
:109C6000A5AA0000DD1F002049AC000060220020F2
:109C700002020000030300003021002019950000BB
:109C800041940000F0B5DE4657464E464546E0B5E5
:109C900087B003AF041C03900800049115002D0A3F
:109CA0000592009311AB1B789A46E4B2A606F60F14
:109CB0000290D3B29C46EDB20022C94B1A70C94B38
:109CC00007CF07C3630701D501239C460823234020
:109CD0001A00534253415B421D4003232340012B92
:109CE0004DD001229146002B04D09A1E5142514181
:109CF0004A00914603AA5289BB480088904241D04D
:109D0000002293460732E0461700083761460029D3
:109D100000D0971C002D44D00237FAB201922422C1
:109D20001440202C41D0032B44D003AA7101137896
:109D3000202083430B43137003221340012B41D097
:109D400003AB72011C7820218C4314431C70E4B2D5
:109D5000230739D410AB1B78019AD718A34B1F7077
:109D6000A24B4A465A70E3439B0740D04346002B20
:109D70005FD0002D45D088229C4B9A7044E003228E
:109D80009146B7E79A48824207D04022494611439C
:109D900089463F3A93460432B5E70022934607329C
:109DA000B1E70837FAB20192B9E7043A49461143DC
:109DB0008946B8E70125002600239B4699460733CC
:109DC0000193B2E70026BBE708234A461A439146AF
:109DD000884B1A684B4610A90098874FB84710ABBC
:109DE0001B780933019AD718804B1F70B8E77F4B57
